{
  "address": "0x0D7FBc907154De84897d9E0Db4B99C391A529488",
  "abi": [
    {
      "inputs": [
        {
          "internalType": "address",
          "name": "_endpoint",
          "type": "address"
        },
        {
          "internalType": "address",
          "name": "_delegate",
          "type": "address"
        },
        {
          "internalType": "address",
          "name": "_cctpTokenMessenger",
          "type": "address"
        },
        {
          "internalType": "address",
          "name": "_usdc",
          "type": "address"
        }
      ],
      "stateMutability": "nonpayable",
      "type": "constructor"
    },
    {
      "inputs": [],
      "name": "InvalidDelegate",
      "type": "error"
    },
    {
      "inputs": [],
      "name": "InvalidEndpointCall",
      "type": "error"
    },
    {
      "inputs": [
        {
          "internalType": "bytes",
          "name": "options",
          "type": "bytes"
        }
      ],
      "name": "InvalidOptions",
      "type": "error"
    },
    {
      "inputs": [],
      "name": "LzTokenUnavailable",
      "type": "error"
    },
    {
      "inputs": [
        {
          "internalType": "uint32",
          "name": "eid",
          "type": "uint32"
        }
      ],
      "name": "NoPeer",
      "type": "error"
    },
    {
      "inputs": [
        {
          "internalType": "uint256",
          "name": "msgValue",
          "type": "uint256"
        }
      ],
      "name": "NotEnoughNative",
      "type": "error"
    },
    {
      "inputs": [
        {
          "internalType": "address",
          "name": "addr",
          "type": "address"
        }
      ],
      "name": "OnlyEndpoint",
      "type": "error"
    },
    {
      "inputs": [
        {
          "internalType": "uint32",
          "name": "eid",
          "type": "uint32"
        },
        {
          "internalType": "bytes32",
          "name": "sender",
          "type": "bytes32"
        }
      ],
      "name": "OnlyPeer",
      "type": "error"
    },
    {
      "inputs": [
        {
          "internalType": "address",
          "name": "owner",
          "type": "address"
        }
      ],
      "name": "OwnableInvalidOwner",
      "type": "error"
    },
    {
      "inputs": [
        {
          "internalType": "address",
          "name": "account",
          "type": "address"
        }
      ],
      "name": "OwnableUnauthorizedAccount",
      "type": "error"
    },
    {
      "inputs": [
        {
          "internalType": "address",
          "name": "token",
          "type": "address"
        }
      ],
      "name": "SafeERC20FailedOperation",
      "type": "error"
    },
    {
      "anonymous": false,
      "inputs": [
        {
          "indexed": true,
          "internalType": "address",
          "name": "user",
          "type": "address"
        },
        {
          "indexed": false,
          "internalType": "uint256",
          "name": "depositAmount",
          "type": "uint256"
        },
        {
          "indexed": false,
          "internalType": "uint256",
          "name": "mintedAmount",
          "type": "uint256"
        },
        {
          "indexed": false,
          "internalType": "uint256",
          "name": "fee",
          "type": "uint256"
        },
        {
          "indexed": true,
          "internalType": "uint64",
          "name": "cctpNonce",
          "type": "uint64"
        },
        {
          "indexed": false,
          "internalType": "uint32",
          "name": "destinationDomain",
          "type": "uint32"
        }
      ],
      "name": "CctpDepositInitiated",
      "type": "event"
    },
    {
      "anonymous": false,
      "inputs": [
        {
          "indexed": true,
          "internalType": "address",
          "name": "user",
          "type": "address"
        },
        {
          "indexed": false,
          "internalType": "uint256",
          "name": "amount",
          "type": "uint256"
        },
        {
          "indexed": true,
          "internalType": "uint32",
          "name": "dstEid",
          "type": "uint32"
        },
        {
          "indexed": true,
          "internalType": "bytes32",
          "name": "guid",
          "type": "bytes32"
        }
      ],
      "name": "DepositFinalized",
      "type": "event"
    },
    {
      "anonymous": false,
      "inputs": [
        {
          "components": [
            {
              "internalType": "uint32",
              "name": "eid",
              "type": "uint32"
            },
            {
              "internalType": "uint16",
              "name": "msgType",
              "type": "uint16"
            },
            {
              "internalType": "bytes",
              "name": "options",
              "type": "bytes"
            }
          ],
          "indexed": false,
          "internalType": "struct EnforcedOptionParam[]",
          "name": "_enforcedOptions",
          "type": "tuple[]"
        }
      ],
      "name": "EnforcedOptionSet",
      "type": "event"
    },
    {
      "anonymous": false,
      "inputs": [
        {
          "indexed": true,
          "internalType": "address",
          "name": "previousOwner",
          "type": "address"
        },
        {
          "indexed": true,
          "internalType": "address",
          "name": "newOwner",
          "type": "address"
        }
      ],
      "name": "OwnershipTransferred",
      "type": "event"
    },
    {
      "anonymous": false,
      "inputs": [
        {
          "indexed": false,
          "internalType": "uint32",
          "name": "eid",
          "type": "uint32"
        },
        {
          "indexed": false,
          "internalType": "bytes32",
          "name": "peer",
          "type": "bytes32"
        }
      ],
      "name": "PeerSet",
      "type": "event"
    },
    {
      "inputs": [],
      "name": "FAST_TRANSFER_THRESHOLD",
      "outputs": [
        {
          "internalType": "uint32",
          "name": "",
          "type": "uint32"
        }
      ],
      "stateMutability": "view",
      "type": "function"
    },
    {
      "inputs": [],
      "name": "MIN_FEE",
      "outputs": [
        {
          "internalType": "uint256",
          "name": "",
          "type": "uint256"
        }
      ],
      "stateMutability": "view",
      "type": "function"
    },
    {
      "inputs": [],
      "name": "MIN_FEE_MULTIPLIER",
      "outputs": [
        {
          "internalType": "uint256",
          "name": "",
          "type": "uint256"
        }
      ],
      "stateMutability": "view",
      "type": "function"
    },
    {
      "inputs": [],
      "name": "SOLANA_DOMAIN",
      "outputs": [
        {
          "internalType": "uint32",
          "name": "",
          "type": "uint32"
        }
      ],
      "stateMutability": "view",
      "type": "function"
    },
    {
      "inputs": [],
      "name": "STORE_SOLANA_USDC_ATA",
      "outputs": [
        {
          "internalType": "bytes32",
          "name": "",
          "type": "bytes32"
        }
      ],
      "stateMutability": "view",
      "type": "function"
    },
    {
      "inputs": [
        {
          "components": [
            {
              "internalType": "uint32",
              "name": "srcEid",
              "type": "uint32"
            },
            {
              "internalType": "bytes32",
              "name": "sender",
              "type": "bytes32"
            },
            {
              "internalType": "uint64",
              "name": "nonce",
              "type": "uint64"
            }
          ],
          "internalType": "struct Origin",
          "name": "origin",
          "type": "tuple"
        }
      ],
      "name": "allowInitializePath",
      "outputs": [
        {
          "internalType": "bool",
          "name": "",
          "type": "bool"
        }
      ],
      "stateMutability": "view",
      "type": "function"
    },
    {
      "inputs": [
        {
          "internalType": "address",
          "name": "",
          "type": "address"
        }
      ],
      "name": "balances",
      "outputs": [
        {
          "internalType": "uint256",
          "name": "",
          "type": "uint256"
        }
      ],
      "stateMutability": "view",
      "type": "function"
    },
    {
      "inputs": [
        {
          "internalType": "address",
          "name": "",
          "type": "address"
        }
      ],
      "name": "cctpDeposits",
      "outputs": [
        {
          "internalType": "uint256",
          "name": "",
          "type": "uint256"
        }
      ],
      "stateMutability": "view",
      "type": "function"
    },
    {
      "inputs": [
        {
          "internalType": "address",
          "name": "",
          "type": "address"
        }
      ],
      "name": "cctpNonces",
      "outputs": [
        {
          "internalType": "uint64",
          "name": "",
          "type": "uint64"
        }
      ],
      "stateMutability": "view",
      "type": "function"
    },
    {
      "inputs": [],
      "name": "cctpTokenMessenger",
      "outputs": [
        {
          "internalType": "contract ICCTPTokenMessengerV2",
          "name": "",
          "type": "address"
        }
      ],
      "stateMutability": "view",
      "type": "function"
    },
    {
      "inputs": [
        {
          "internalType": "uint32",
          "name": "_eid",
          "type": "uint32"
        },
        {
          "internalType": "uint16",
          "name": "_msgType",
          "type": "uint16"
        },
        {
          "internalType": "bytes",
          "name": "_extraOptions",
          "type": "bytes"
        }
      ],
      "name": "combineOptions",
      "outputs": [
        {
          "internalType": "bytes",
          "name": "",
          "type": "bytes"
        }
      ],
      "stateMutability": "view",
      "type": "function"
    },
    {
      "inputs": [],
      "name": "counter",
      "outputs": [
        {
          "internalType": "uint64",
          "name": "",
          "type": "uint64"
        }
      ],
      "stateMutability": "view",
      "type": "function"
    },
    {
      "inputs": [],
      "name": "data",
      "outputs": [
        {
          "internalType": "string",
          "name": "",
          "type": "string"
        }
      ],
      "stateMutability": "view",
      "type": "function"
    },
    {
      "inputs": [
        {
          "internalType": "uint256",
          "name": "_amount",
          "type": "uint256"
        }
      ],
      "name": "depositViaCCTP",
      "outputs": [
        {
          "internalType": "uint64",
          "name": "",
          "type": "uint64"
        }
      ],
      "stateMutability": "nonpayable",
      "type": "function"
    },
    {
      "inputs": [],
      "name": "endpoint",
      "outputs": [
        {
          "internalType": "contract ILayerZeroEndpointV2",
          "name": "",
          "type": "address"
        }
      ],
      "stateMutability": "view",
      "type": "function"
    },
    {
      "inputs": [
        {
          "internalType": "uint32",
          "name": "eid",
          "type": "uint32"
        },
        {
          "internalType": "uint16",
          "name": "msgType",
          "type": "uint16"
        }
      ],
      "name": "enforcedOptions",
      "outputs": [
        {
          "internalType": "bytes",
          "name": "enforcedOption",
          "type": "bytes"
        }
      ],
      "stateMutability": "view",
      "type": "function"
    },
    {
      "inputs": [
        {
          "internalType": "address",
          "name": "_user",
          "type": "address"
        }
      ],
      "name": "getPendingDeposit",
      "outputs": [
        {
          "internalType": "uint256",
          "name": "amount",
          "type": "uint256"
        },
        {
          "internalType": "uint64",
          "name": "nonce",
          "type": "uint64"
        }
      ],
      "stateMutability": "view",
      "type": "function"
    },
    {
      "inputs": [
        {
          "components": [
            {
              "internalType": "uint32",
              "name": "srcEid",
              "type": "uint32"
            },
            {
              "internalType": "bytes32",
              "name": "sender",
              "type": "bytes32"
            },
            {
              "internalType": "uint64",
              "name": "nonce",
              "type": "uint64"
            }
          ],
          "internalType": "struct Origin",
          "name": "",
          "type": "tuple"
        },
        {
          "internalType": "bytes",
          "name": "",
          "type": "bytes"
        },
        {
          "internalType": "address",
          "name": "_sender",
          "type": "address"
        }
      ],
      "name": "isComposeMsgSender",
      "outputs": [
        {
          "internalType": "bool",
          "name": "",
          "type": "bool"
        }
      ],
      "stateMutability": "view",
      "type": "function"
    },
    {
      "inputs": [
        {
          "internalType": "address",
          "name": "",
          "type": "address"
        },
        {
          "internalType": "address",
          "name": "",
          "type": "address"
        },
        {
          "internalType": "bytes32",
          "name": "guid",
          "type": "bytes32"
        },
        {
          "internalType": "uint16",
          "name": "",
          "type": "uint16"
        },
        {
          "internalType": "bytes",
          "name": "payload",
          "type": "bytes"
        },
        {
          "internalType": "bytes",
          "name": "",
          "type": "bytes"
        }
      ],
      "name": "lzCompose",
      "outputs": [],
      "stateMutability": "payable",
      "type": "function"
    },
    {
      "inputs": [
        {
          "components": [
            {
              "internalType": "uint32",
              "name": "srcEid",
              "type": "uint32"
            },
            {
              "internalType": "bytes32",
              "name": "sender",
              "type": "bytes32"
            },
            {
              "internalType": "uint64",
              "name": "nonce",
              "type": "uint64"
            }
          ],
          "internalType": "struct Origin",
          "name": "_origin",
          "type": "tuple"
        },
        {
          "internalType": "bytes32",
          "name": "_guid",
          "type": "bytes32"
        },
        {
          "internalType": "bytes",
          "name": "_message",
          "type": "bytes"
        },
        {
          "internalType": "address",
          "name": "_executor",
          "type": "address"
        },
        {
          "internalType": "bytes",
          "name": "_extraData",
          "type": "bytes"
        }
      ],
      "name": "lzReceive",
      "outputs": [],
      "stateMutability": "payable",
      "type": "function"
    },
    {
      "inputs": [
        {
          "internalType": "uint32",
          "name": "",
          "type": "uint32"
        },
        {
          "internalType": "bytes32",
          "name": "",
          "type": "bytes32"
        }
      ],
      "name": "nextNonce",
      "outputs": [
        {
          "internalType": "uint64",
          "name": "nonce",
          "type": "uint64"
        }
      ],
      "stateMutability": "view",
      "type": "function"
    },
    {
      "inputs": [],
      "name": "oAppVersion",
      "outputs": [
        {
          "internalType": "uint64",
          "name": "senderVersion",
          "type": "uint64"
        },
        {
          "internalType": "uint64",
          "name": "receiverVersion",
          "type": "uint64"
        }
      ],
      "stateMutability": "pure",
      "type": "function"
    },
    {
      "inputs": [],
      "name": "owner",
      "outputs": [
        {
          "internalType": "address",
          "name": "",
          "type": "address"
        }
      ],
      "stateMutability": "view",
      "type": "function"
    },
    {
      "inputs": [
        {
          "internalType": "uint32",
          "name": "eid",
          "type": "uint32"
        }
      ],
      "name": "peers",
      "outputs": [
        {
          "internalType": "bytes32",
          "name": "peer",
          "type": "bytes32"
        }
      ],
      "stateMutability": "view",
      "type": "function"
    },
    {
      "inputs": [
        {
          "internalType": "bytes32",
          "name": "",
          "type": "bytes32"
        }
      ],
      "name": "pendingSender",
      "outputs": [
        {
          "internalType": "address",
          "name": "",
          "type": "address"
        }
      ],
      "stateMutability": "view",
      "type": "function"
    },
    {
      "inputs": [
        {
          "internalType": "uint32",
          "name": "_dstEid",
          "type": "uint32"
        },
        {
          "internalType": "bytes",
          "name": "_options",
          "type": "bytes"
        },
        {
          "internalType": "bool",
          "name": "_payInLzToken",
          "type": "bool"
        }
      ],
      "name": "quoteDeposit",
      "outputs": [
        {
          "components": [
            {
              "internalType": "uint256",
              "name": "nativeFee",
              "type": "uint256"
            },
            {
              "internalType": "uint256",
              "name": "lzTokenFee",
              "type": "uint256"
            }
          ],
          "internalType": "struct MessagingFee",
          "name": "fee",
          "type": "tuple"
        }
      ],
      "stateMutability": "view",
      "type": "function"
    },
    {
      "inputs": [
        {
          "internalType": "uint32",
          "name": "_dstEid",
          "type": "uint32"
        },
        {
          "internalType": "uint64",
          "name": "_by",
          "type": "uint64"
        },
        {
          "internalType": "bytes",
          "name": "_options",
          "type": "bytes"
        },
        {
          "internalType": "bool",
          "name": "_payInLzToken",
          "type": "bool"
        }
      ],
      "name": "quoteIncrement",
      "outputs": [
        {
          "components": [
            {
              "internalType": "uint256",
              "name": "nativeFee",
              "type": "uint256"
            },
            {
              "internalType": "uint256",
              "name": "lzTokenFee",
              "type": "uint256"
            }
          ],
          "internalType": "struct MessagingFee",
          "name": "fee",
          "type": "tuple"
        }
      ],
      "stateMutability": "view",
      "type": "function"
    },
    {
      "inputs": [],
      "name": "renounceOwnership",
      "outputs": [],
      "stateMutability": "nonpayable",
      "type": "function"
    },
    {
      "inputs": [
        {
          "internalType": "uint32",
          "name": "_dstEid",
          "type": "uint32"
        },
        {
          "internalType": "bytes",
          "name": "_options",
          "type": "bytes"
        }
      ],
      "name": "requestDeposit",
      "outputs": [
        {
          "components": [
            {
              "internalType": "bytes32",
              "name": "guid",
              "type": "bytes32"
            },
            {
              "internalType": "uint64",
              "name": "nonce",
              "type": "uint64"
            },
            {
              "components": [
                {
                  "internalType": "uint256",
                  "name": "nativeFee",
                  "type": "uint256"
                },
                {
                  "internalType": "uint256",
                  "name": "lzTokenFee",
                  "type": "uint256"
                }
              ],
              "internalType": "struct MessagingFee",
              "name": "fee",
              "type": "tuple"
            }
          ],
          "internalType": "struct MessagingReceipt",
          "name": "receipt",
          "type": "tuple"
        }
      ],
      "stateMutability": "payable",
      "type": "function"
    },
    {
      "inputs": [
        {
          "internalType": "uint32",
          "name": "_dstEid",
          "type": "uint32"
        },
        {
          "internalType": "uint64",
          "name": "_by",
          "type": "uint64"
        },
        {
          "internalType": "bytes",
          "name": "_options",
          "type": "bytes"
        }
      ],
      "name": "requestIncrement",
      "outputs": [
        {
          "components": [
            {
              "internalType": "bytes32",
              "name": "guid",
              "type": "bytes32"
            },
            {
              "internalType": "uint64",
              "name": "nonce",
              "type": "uint64"
            },
            {
              "components": [
                {
                  "internalType": "uint256",
                  "name": "nativeFee",
                  "type": "uint256"
                },
                {
                  "internalType": "uint256",
                  "name": "lzTokenFee",
                  "type": "uint256"
                }
              ],
              "internalType": "struct MessagingFee",
              "name": "fee",
              "type": "tuple"
            }
          ],
          "internalType": "struct MessagingReceipt",
          "name": "receipt",
          "type": "tuple"
        }
      ],
      "stateMutability": "payable",
      "type": "function"
    },
    {
      "inputs": [
        {
          "internalType": "address",
          "name": "_delegate",
          "type": "address"
        }
      ],
      "name": "setDelegate",
      "outputs": [],
      "stateMutability": "nonpayable",
      "type": "function"
    },
    {
      "inputs": [
        {
          "components": [
            {
              "internalType": "uint32",
              "name": "eid",
              "type": "uint32"
            },
            {
              "internalType": "uint16",
              "name": "msgType",
              "type": "uint16"
            },
            {
              "internalType": "bytes",
              "name": "options",
              "type": "bytes"
            }
          ],
          "internalType": "struct EnforcedOptionParam[]",
          "name": "_enforcedOptions",
          "type": "tuple[]"
        }
      ],
      "name": "setEnforcedOptions",
      "outputs": [],
      "stateMutability": "nonpayable",
      "type": "function"
    },
    {
      "inputs": [
        {
          "internalType": "uint32",
          "name": "_eid",
          "type": "uint32"
        },
        {
          "internalType": "bytes32",
          "name": "_peer",
          "type": "bytes32"
        }
      ],
      "name": "setPeer",
      "outputs": [],
      "stateMutability": "nonpayable",
      "type": "function"
    },
    {
      "inputs": [
        {
          "internalType": "address",
          "name": "newOwner",
          "type": "address"
        }
      ],
      "name": "transferOwnership",
      "outputs": [],
      "stateMutability": "nonpayable",
      "type": "function"
    },
    {
      "inputs": [],
      "name": "usdc",
      "outputs": [
        {
          "internalType": "contract IERC20",
          "name": "",
          "type": "address"
        }
      ],
      "stateMutability": "view",
      "type": "function"
    }
  ],
  "transactionHash": "0x408809b888ad177ad46ed2fa88d4bc7b019744623dc48a73f1dbf00dd873fcb2",
  "args": [
    "0x6EDCE65403992e310A62460808c4b910D972f10f",
    "0x79B7931d9bb01e58beAE970e1dd74146317aa667",
    "0x8FE6B999Dc680CcFDD5Bf7EB0974218be2542DAA",
    "0x036CbD53842c5426634e7929541eC2318f3dCF7e"
  ],
  "numDeployments": 26,
  "solcInputHash": "c0e9a8c5f2a75c76818fc71a5e89f320",
  "bytecode": "0x610120604052601560e09081527f4e6f7468696e67207265636569766564207965742e00000000000000000000006101005260039062000040908262000309565b503480156200004e57600080fd5b5060405162002f3c38038062002f3c8339810160408190526200007191620003f2565b83838181806001600160a01b038116620000a657604051631e4fbdf760e01b8152600060048201526024015b60405180910390fd5b620000b18162000212565b506001600160a01b038083166080528116620000e057604051632d618d8160e21b815260040160405180910390fd5b60805160405163ca5eb5e160e01b81526001600160a01b0383811660048301529091169063ca5eb5e190602401600060405180830381600087803b1580156200012857600080fd5b505af11580156200013d573d6000803e3d6000fd5b5050506001600160a01b03871694506200019f93505050505760405162461bcd60e51b815260206004820152601660248201527f496e76616c69642043435450206d657373656e6765720000000000000000000060448201526064016200009d565b6001600160a01b038116620001f75760405162461bcd60e51b815260206004820152601460248201527f496e76616c69642055534443206164647265737300000000000000000000000060448201526064016200009d565b6001600160a01b0391821660a0521660c052506200044f9050565b600080546001600160a01b038381166001600160a01b0319831681178455604051919092169283917f8be0079c531659141344cd1fd0a4f28419497f9722a3daafe3b4186f6b6457e09190a35050565b634e487b7160e01b600052604160045260246000fd5b600181811c908216806200028d57607f821691505b602082108103620002ae57634e487b7160e01b600052602260045260246000fd5b50919050565b601f82111562000304576000816000526020600020601f850160051c81016020861015620002df5750805b601f850160051c820191505b818110156200030057828155600101620002eb565b5050505b505050565b81516001600160401b0381111562000325576200032562000262565b6200033d8162000336845462000278565b84620002b4565b602080601f8311600181146200037557600084156200035c5750858301515b600019600386901b1c1916600185901b17855562000300565b600085815260208120601f198616915b82811015620003a65788860151825594840194600190910190840162000385565b5085821015620003c55787850151600019600388901b60f8161c191681555b5050505050600190811b01905550565b80516001600160a01b0381168114620003ed57600080fd5b919050565b600080600080608085870312156200040957600080fd5b6200041485620003d5565b93506200042460208601620003d5565b92506200043460408601620003d5565b91506200044460608601620003d5565b905092959194509250565b60805160a05160c051612a69620004d36000396000818161035e01528181610975015281816109e60152610ad50152600081816105b4015281816109b40152610b550152600081816104240152818161077a01528181610ee801528181611501015281816116910152818161192301528181611b580152611c110152612a696000f3fe6080604052600436106102045760003560e01c806376c7a3c711610118578063a231d2e7116100a0578063bc70b3541161006f578063bc70b354146106c2578063ca5eb5e1146106e2578063d11808dc14610702578063f2fde38b14610738578063ff7bd03d1461075857600080fd5b8063a231d2e7146105e9578063b70773c014610609578063b98bd07014610675578063bb0b6a531461069557600080fd5b80638ec65810116100e75780638ec658101461054b57806391d20fa114610578578063966dfbd51461058b5780639748cf7c146105a25780639954e58d146105d657600080fd5b806376c7a3c7146104c65780637d25a05e146104dd57806382413eac146104fd5780638da5cb5b1461052d57600080fd5b80633e413bee1161019b5780635e280f111161016a5780635e280f111461041257806361bc221a146104465780636503fbc614610466578063715018a61461049c57806373d4a13a146104b157600080fd5b80633e413bee1461034c5780634191ea87146103985780634426b4f6146103ad5780635535d461146103e557600080fd5b80631d2633c3116101d75780631d2633c3146102b257806326c4f29d146102df57806327e235e3146102ff5780633400288b1461032c57600080fd5b806302d27bd81461020957806313137d651461025057806314bd4f5f1461026557806317442b7014610290575b600080fd5b34801561021557600080fd5b5061023d7f0532b299adf7feeff0684579095c83982f2998b494fd93a5ae188fbcbfee74a581565b6040519081526020015b60405180910390f35b61026361025e366004611d63565b610778565b005b34801561027157600080fd5b5061027b6103e881565b60405163ffffffff9091168152602001610247565b34801561029c57600080fd5b5060408051600181526002602082015201610247565b3480156102be57600080fd5b5061023d6102cd366004611e02565b60076020526000908152604090205481565b6102f26102ed366004611e54565b610838565b6040516102479190611eb6565b34801561030b57600080fd5b5061023d61031a366004611e02565b60056020526000908152604090205481565b34801561033857600080fd5b50610263610347366004611ef8565b61088b565b34801561035857600080fd5b506103807f000000000000000000000000000000000000000000000000000000000000000081565b6040516001600160a01b039091168152602001610247565b3480156103a457600080fd5b5061027b600581565b3480156103b957600080fd5b506103cd6103c8366004611f22565b6108a1565b6040516001600160401b039091168152602001610247565b3480156103f157600080fd5b50610405610400366004611f4d565b610cbc565b6040516102479190611fd0565b34801561041e57600080fd5b506103807f000000000000000000000000000000000000000000000000000000000000000081565b34801561045257600080fd5b506004546103cd906001600160401b031681565b34801561047257600080fd5b50610380610481366004611f22565b6006602052600090815260409020546001600160a01b031681565b3480156104a857600080fd5b50610263610d61565b3480156104bd57600080fd5b50610405610d75565b3480156104d257600080fd5b5061023d620186a081565b3480156104e957600080fd5b506103cd6104f8366004611ef8565b610d82565b34801561050957600080fd5b5061051d610518366004611fe3565b610d8b565b6040519015158152602001610247565b34801561053957600080fd5b506000546001600160a01b0316610380565b34801561055757600080fd5b5061056b610566366004612057565b610da0565b60405161024791906120b1565b6102636105863660046120c8565b610edd565b34801561059757600080fd5b5061023d6298968081565b3480156105ae57600080fd5b506103807f000000000000000000000000000000000000000000000000000000000000000081565b6102f26105e4366004612176565b6110f0565b3480156105f557600080fd5b5061056b6106043660046121c8565b6112da565b34801561061557600080fd5b50610658610624366004611e02565b6001600160a01b031660009081526007602090815260408083205460089092529091205490916001600160401b0390911690565b604080519283526001600160401b03909116602083015201610247565b34801561068157600080fd5b50610263610690366004612242565b611318565b3480156106a157600080fd5b5061023d6106b03660046122b6565b60016020526000908152604090205481565b3480156106ce57600080fd5b506104056106dd3660046122d1565b611332565b3480156106ee57600080fd5b506102636106fd366004611e02565b6114da565b34801561070e57600080fd5b506103cd61071d366004611e02565b6008602052600090815260409020546001600160401b031681565b34801561074457600080fd5b50610263610753366004611e02565b611560565b34801561076457600080fd5b5061051d6107733660046122fe565b61159e565b7f00000000000000000000000000000000000000000000000000000000000000006001600160a01b031633146107c8576040516391ac5e4f60e01b81523360048201526024015b60405180910390fd5b602087018035906107e2906107dd908a6122b6565b6115d4565b14610820576107f460208801886122b6565b60405163309afaf360e21b815263ffffffff9091166004820152602088013560248201526044016107bf565b61082f87878787878787611610565b50505050505050565b610840611ca7565b600061084b85611627565b9050600061085c8760018787611332565b9050610880878383604051806040016040528034815260200160008152503361165e565b979650505050505050565b61089361175e565b61089d828261178b565b5050565b60008082116108eb5760405162461bcd60e51b8152602060048201526016602482015275416d6f756e74206d757374206265206e6f6e7a65726f60501b60448201526064016107bf565b6000629896806108fe620186a085612330565b6109089190612347565b905060006109168285612369565b9050600081116109685760405162461bcd60e51b815260206004820181905260248201527f416d6f756e7420746f6f20736d616c6c2028666565203e3d20616d6f756e742960448201526064016107bf565b61099d6001600160a01b037f0000000000000000000000000000000000000000000000000000000000000000163330876117e0565b60405163095ea7b360e01b81526001600160a01b037f000000000000000000000000000000000000000000000000000000000000000081166004830152602482018690526000917f00000000000000000000000000000000000000000000000000000000000000009091169063095ea7b3906044016020604051808303816000875af1158015610a31573d6000803e3d6000fd5b505050506040513d601f19601f82011682018060405250810190610a55919061237c565b905080610a9b5760405162461bcd60e51b815260206004820152601460248201527310d0d51408185c1c1c9bdd985b0819985a5b195960621b60448201526064016107bf565b6040805160248101879052600560448201527f0532b299adf7feeff0684579095c83982f2998b494fd93a5ae188fbcbfee74a560648201527f00000000000000000000000000000000000000000000000000000000000000006001600160a01b039081166084830152600060a4830181905260c483018790526103e860e4808501919091528451808503909101815261010490930184526020830180516001600160e01b0316634701287760e11b179052925191929182917f00000000000000000000000000000000000000000000000000000000000000001690610b81908590612399565b6000604051808303816000865af19150503d8060008114610bbe576040519150601f19603f3d011682016040523d82523d6000602084013e610bc3565b606091505b509150915081610c0d5760405162461bcd60e51b815260206004820152601560248201527419195c1bdcda5d119bdc909d5c9b8819985a5b1959605a1b60448201526064016107bf565b805160009015610c2e5781806020019051810190610c2b91906123b5565b90505b3360008181526007602090815260408083208a90556008825291829020805467ffffffffffffffff19166001600160401b03861690811790915582518d81529182018a90529181018a9052600560608201529091907ff22f3dc03ed1eb7b368d6d642369e8aa2fa603867ed62665b12147023694ddb09060800160405180910390a398975050505050505050565b600260209081526000928352604080842090915290825290208054610ce0906123d2565b80601f0160208091040260200160405190810160405280929190818152602001828054610d0c906123d2565b8015610d595780601f10610d2e57610100808354040283529160200191610d59565b820191906000526020600020905b815481529060010190602001808311610d3c57829003601f168201915b505050505081565b610d6961175e565b610d736000611840565b565b60038054610ce0906123d2565b60005b92915050565b6001600160a01b03811630145b949350505050565b60408051808201909152600080825260208201523360009081526007602052604090205480610e115760405162461bcd60e51b815260206004820152601760248201527f4e6f2070656e64696e672043435450206465706f73697400000000000000000060448201526064016107bf565b6001600160401b03811115610e645760405162461bcd60e51b8152602060048201526019602482015278082dadeeadce840caf0c6cacac8e640ead2dce86c6840dac2f603b1b60448201526064016107bf565b6000610e6f82611890565b33600081815260086020526040902054610e91906001600160401b0316611890565b604051602001610ea393929190612406565b60405160208183030381529060405290506000610ec38860018989611332565b9050610ed18883838861190d565b98975050505050505050565b336001600160a01b037f00000000000000000000000000000000000000000000000000000000000000001614610f555760405162461bcd60e51b815260206004820152601760248201527f4c5a3a2063616c6c6572206e6f7420656e64706f696e7400000000000000000060448201526064016107bf565b6000600984148015610f87575060028585600081610f7557610f75612452565b9050013560f81c60f81b60f81c60ff16145b156110035760005b6008811015610fe157610fa3816008612330565b6001600160401b03168686610fb9846001612468565b818110610fc857610fc8612452565b919091013560f81c90911b929092179150600101610f8f565b506004805467ffffffffffffffff19166001600160401b038316179055611075565b60088490036110755760005b600881101561105757611023816008612330565b6001600160401b031686868381811061103e5761103e612452565b919091013560f81c90911b92909217915060010161100f565b506004805467ffffffffffffffff19166001600160401b0383161790555b6000878152600660205260409020546001600160a01b031680156110e457600088815260066020908152604080832080546001600160a01b03191690556001600160a01b03841683526005909152812080546001600160401b03851692906110de908490612468565b90915550505b50505050505050505050565b6110f8611ca7565b33600090815260076020526040902054806111715760405162461bcd60e51b815260206004820152603360248201527f4e6f2070656e64696e672043435450206465706f7369742e2043616c6c2064656044820152723837b9b4ba2b34b0a1a1aa28103334b939ba1760691b60648201526084016107bf565b6001600160401b038111156111c45760405162461bcd60e51b8152602060048201526019602482015278082dadeeadce840caf0c6cacac8e640ead2dce86c6840dac2f603b1b60448201526064016107bf565b60006111cf82611890565b336000818152600860205260409020546111f1906001600160401b0316611890565b60405160200161120393929190612406565b604051602081830303815290604052905060006112238760018888611332565b9050611247878383604051806040016040528034815260200160008152503361165e565b8051600090815260066020908152604080832080546001600160a01b03191633908117909155808452600783528184208490556008835292819020805467ffffffffffffffff19169055835190518781529397509263ffffffff8b1692917fc5f436d590383fddc971d5bda9254311dda012429ed67a8c0415b144b4c3fea9910160405180910390a45050509392505050565b604080518082019091526000808252602082015260006112f986611627565b9050600061130a8860018888611332565b9050610ed18883838761190d565b61132061175e565b61089d61132d82846124e9565b6119ee565b63ffffffff8416600090815260026020908152604080832061ffff87168452909152812080546060929190611366906123d2565b80601f0160208091040260200160405190810160405280929190818152602001828054611392906123d2565b80156113df5780601f106113b4576101008083540402835291602001916113df565b820191906000526020600020905b8154815290600101906020018083116113c257829003601f168201915b50505050509050805160000361142f5783838080601f016020809104026020016040519081016040528093929190818152602001838380828437600092019190915250929450610d989350505050565b600083900361143f579050610d98565b600283106114bd5761148684848080601f016020809104026020016040519081016040528093929190818152602001838380828437600092019190915250611b0092505050565b80611494846002818861260e565b6040516020016114a693929190612638565b604051602081830303815290604052915050610d98565b8383604051639a6d49cd60e01b81526004016107bf929190612660565b6114e261175e565b60405163ca5eb5e160e01b81526001600160a01b0382811660048301527f0000000000000000000000000000000000000000000000000000000000000000169063ca5eb5e190602401600060405180830381600087803b15801561154557600080fd5b505af1158015611559573d6000803e3d6000fd5b5050505050565b61156861175e565b6001600160a01b03811661159257604051631e4fbdf760e01b8152600060048201526024016107bf565b61159b81611840565b50565b60006020820180359060019083906115b690866122b6565b63ffffffff1681526020810191909152604001600020541492915050565b63ffffffff811660009081526001602052604081205480610d855760405163f6ff4fb760e01b815263ffffffff841660048201526024016107bf565b600361161d8587836126e0565b5050505050505050565b60408051600160f81b602082015260c09290921b6001600160c01b0319166021830152805160098184030181526029909201905290565b611666611ca7565b60006116758460000151611b2c565b60208501519091501561168f5761168f8460200151611b54565b7f00000000000000000000000000000000000000000000000000000000000000006001600160a01b0316632637a450826040518060a001604052808b63ffffffff1681526020016116df8c6115d4565b81526020018a815260200189815260200160008960200151111515815250866040518463ffffffff1660e01b815260040161171b92919061279f565b60806040518083038185885af1158015611739573d6000803e3d6000fd5b50505050506040513d601f19601f820116820180604052508101906108809190612866565b6000546001600160a01b03163314610d735760405163118cdaa760e01b81523360048201526024016107bf565b63ffffffff8216600081815260016020908152604091829020849055815192835282018390527f238399d427b947898edb290f5ff0f9109849b1c3ba196a42e35f00c50a54b98b910160405180910390a15050565b604080516001600160a01b0385811660248301528416604482015260648082018490528251808303909101815260849091019091526020810180516001600160e01b03166323b872dd60e01b17905261183a908590611c36565b50505050565b600080546001600160a01b038381166001600160a01b0319831681178455604051919092169283917f8be0079c531659141344cd1fd0a4f28419497f9722a3daafe3b4186f6b6457e09190a35050565b6040805160088082528183019092526060916020820181803683370190505090508160005b6008811015611906578160ff1660f81b8382815181106118d7576118d7612452565b60200101906001600160f81b031916908160001a90535060089190911c66ffffffffffffff16906001016118b5565b5050919050565b60408051808201909152600080825260208201527f00000000000000000000000000000000000000000000000000000000000000006001600160a01b031663ddc28c586040518060a001604052808863ffffffff168152602001611970896115d4565b8152602001878152602001868152602001851515815250306040518363ffffffff1660e01b81526004016119a592919061279f565b6040805180830381865afa1580156119c1573d6000803e3d6000fd5b505050506040513d601f19601f820116820180604052508101906119e591906128b0565b95945050505050565b60005b8151811015611ac557611a20828281518110611a0f57611a0f612452565b602002602001015160400151611b00565b818181518110611a3257611a32612452565b60200260200101516040015160026000848481518110611a5457611a54612452565b60200260200101516000015163ffffffff1663ffffffff1681526020019081526020016000206000848481518110611a8e57611a8e612452565b60200260200101516020015161ffff1661ffff1681526020019081526020016000209081611abc91906128cc565b506001016119f1565b507fbe4864a8e820971c0247f5992e2da559595f7bf076a21cb5928d443d2a13b67481604051611af5919061298b565b60405180910390a150565b600281015161ffff811660031461089d5781604051639a6d49cd60e01b81526004016107bf9190611fd0565b6000813414611b50576040516304fb820960e51b81523460048201526024016107bf565b5090565b60007f00000000000000000000000000000000000000000000000000000000000000006001600160a01b031663e4fe1d946040518163ffffffff1660e01b8152600401602060405180830381865afa158015611bb4573d6000803e3d6000fd5b505050506040513d601f19601f82011682018060405250810190611bd89190612a16565b90506001600160a01b038116611c01576040516329b99a9560e11b815260040160405180910390fd5b61089d6001600160a01b038216337f0000000000000000000000000000000000000000000000000000000000000000856117e0565b600080602060008451602086016000885af180611c59576040513d6000823e3d81fd5b50506000513d91508115611c71578060011415611c7e565b6001600160a01b0384163b155b1561183a57604051635274afe760e01b81526001600160a01b03851660048201526024016107bf565b60405180606001604052806000801916815260200160006001600160401b03168152602001611ce9604051806040016040528060008152602001600081525090565b905290565b600060608284031215611d0057600080fd5b50919050565b60008083601f840112611d1857600080fd5b5081356001600160401b03811115611d2f57600080fd5b602083019150836020828501011115611d4757600080fd5b9250929050565b6001600160a01b038116811461159b57600080fd5b600080600080600080600060e0888a031215611d7e57600080fd5b611d888989611cee565b96506060880135955060808801356001600160401b0380821115611dab57600080fd5b611db78b838c01611d06565b909750955060a08a01359150611dcc82611d4e565b90935060c08901359080821115611de257600080fd5b50611def8a828b01611d06565b989b979a50959850939692959293505050565b600060208284031215611e1457600080fd5b8135611e1f81611d4e565b9392505050565b803563ffffffff81168114611e3a57600080fd5b919050565b6001600160401b038116811461159b57600080fd5b60008060008060608587031215611e6a57600080fd5b611e7385611e26565b93506020850135611e8381611e3f565b925060408501356001600160401b03811115611e9e57600080fd5b611eaa87828801611d06565b95989497509550505050565b6000608082019050825182526001600160401b0360208401511660208301526040830151611ef1604084018280518252602090810151910152565b5092915050565b60008060408385031215611f0b57600080fd5b611f1483611e26565b946020939093013593505050565b600060208284031215611f3457600080fd5b5035919050565b803561ffff81168114611e3a57600080fd5b60008060408385031215611f6057600080fd5b611f6983611e26565b9150611f7760208401611f3b565b90509250929050565b60005b83811015611f9b578181015183820152602001611f83565b50506000910152565b60008151808452611fbc816020860160208601611f80565b601f01601f19169290920160200192915050565b602081526000611e1f6020830184611fa4565b60008060008060a08587031215611ff957600080fd5b6120038686611cee565b935060608501356001600160401b0381111561201e57600080fd5b61202a87828801611d06565b909450925050608085013561203e81611d4e565b939692955090935050565b801515811461159b57600080fd5b6000806000806060858703121561206d57600080fd5b61207685611e26565b935060208501356001600160401b0381111561209157600080fd5b61209d87828801611d06565b909450925050604085013561203e81612049565b815181526020808301519082015260408101610d85565b60008060008060008060008060c0898b0312156120e457600080fd5b88356120ef81611d4e565b975060208901356120ff81611d4e565b96506040890135955061211460608a01611f3b565b945060808901356001600160401b038082111561213057600080fd5b61213c8c838d01611d06565b909650945060a08b013591508082111561215557600080fd5b506121628b828c01611d06565b999c989b5096995094979396929594505050565b60008060006040848603121561218b57600080fd5b61219484611e26565b925060208401356001600160401b038111156121af57600080fd5b6121bb86828701611d06565b9497909650939450505050565b6000806000806000608086880312156121e057600080fd5b6121e986611e26565b945060208601356121f981611e3f565b935060408601356001600160401b0381111561221457600080fd5b61222088828901611d06565b909450925050606086013561223481612049565b809150509295509295909350565b6000806020838503121561225557600080fd5b82356001600160401b038082111561226c57600080fd5b818501915085601f83011261228057600080fd5b81358181111561228f57600080fd5b8660208260051b85010111156122a457600080fd5b60209290920196919550909350505050565b6000602082840312156122c857600080fd5b611e1f82611e26565b600080600080606085870312156122e757600080fd5b6122f085611e26565b9350611e8360208601611f3b565b60006060828403121561231057600080fd5b611e1f8383611cee565b634e487b7160e01b600052601160045260246000fd5b8082028115828204841417610d8557610d8561231a565b60008261236457634e487b7160e01b600052601260045260246000fd5b500490565b81810381811115610d8557610d8561231a565b60006020828403121561238e57600080fd5b8151611e1f81612049565b600082516123ab818460208701611f80565b9190910192915050565b6000602082840312156123c757600080fd5b8151611e1f81611e3f565b600181811c908216806123e657607f821691505b602082108103611d0057634e487b7160e01b600052602260045260246000fd5b60008451612418818460208901611f80565b606085901b6bffffffffffffffffffffffff19169083019081528351612445816014840160208801611f80565b0160140195945050505050565b634e487b7160e01b600052603260045260246000fd5b80820180821115610d8557610d8561231a565b634e487b7160e01b600052604160045260246000fd5b604051606081016001600160401b03811182821017156124b3576124b361247b565b60405290565b604051601f8201601f191681016001600160401b03811182821017156124e1576124e161247b565b604052919050565b60006001600160401b03808411156125035761250361247b565b8360051b60206125148183016124b9565b86815291850191818101903684111561252c57600080fd5b865b84811015612602578035868111156125465760008081fd5b8801606036829003121561255a5760008081fd5b612562612491565b61256b82611e26565b8152612578868301611f3b565b86820152604080830135898111156125905760008081fd5b9290920191601f36818501126125a65760008081fd5b83358a8111156125b8576125b861247b565b6125c9818301601f19168a016124b9565b915080825236898287010111156125e05760008081fd5b808986018a84013760009082018901529082015284525091830191830161252e565b50979650505050505050565b6000808585111561261e57600080fd5b8386111561262b57600080fd5b5050820193919092039150565b6000845161264a818460208901611f80565b8201838582376000930192835250909392505050565b60208152816020820152818360408301376000818301604090810191909152601f909201601f19160101919050565b601f8211156126db576000816000526020600020601f850160051c810160208610156126b85750805b601f850160051c820191505b818110156126d7578281556001016126c4565b5050505b505050565b6001600160401b038311156126f7576126f761247b565b61270b8361270583546123d2565b8361268f565b6000601f84116001811461273f57600085156127275750838201355b600019600387901b1c1916600186901b178355611559565b600083815260209020601f19861690835b828110156127705786850135825560209485019460019092019101612750565b508682101561278d5760001960f88860031b161c19848701351681555b505060018560011b0183555050505050565b6040815263ffffffff8351166040820152602083015160608201526000604084015160a060808401526127d560e0840182611fa4565b90506060850151603f198483030160a08501526127f28282611fa4565b60809690960151151560c08501525050506001600160a01b039190911660209091015290565b60006040828403121561282a57600080fd5b604051604081018181106001600160401b038211171561284c5761284c61247b565b604052825181526020928301519281019290925250919050565b60006080828403121561287857600080fd5b612880612491565b82518152602083015161289281611e3f565b60208201526128a48460408501612818565b60408201529392505050565b6000604082840312156128c257600080fd5b611e1f8383612818565b81516001600160401b038111156128e5576128e561247b565b6128f9816128f384546123d2565b8461268f565b602080601f83116001811461292e57600084156129165750858301515b600019600386901b1c1916600185901b1785556126d7565b600085815260208120601f198616915b8281101561295d5788860151825594840194600190910190840161293e565b508582101561297b5787850151600019600388901b60f8161c191681555b5050505050600190811b01905550565b600060208083018184528085518083526040925060408601915060408160051b87010184880160005b83811015612a0857888303603f190185528151805163ffffffff1684528781015161ffff168885015286015160608785018190526129f481860183611fa4565b9689019694505050908601906001016129b4565b509098975050505050505050565b600060208284031215612a2857600080fd5b8151611e1f81611d4e56fea26469706673582212204fa2b257c3b0654dc11811f41fb059b36e87b7673abe65b18d409838ac3a09ec64736f6c63430008160033",
  "devdoc": {
    "errors": {
      "OwnableInvalidOwner(address)": [
        {
          "details": "The owner is not a valid owner account. (eg. `address(0)`)"
        }
      ],
      "OwnableUnauthorizedAccount(address)": [
        {
          "details": "The caller account is not authorized to perform an operation."
        }
      ],
      "SafeERC20FailedOperation(address)": [
        {
          "details": "An operation with an ERC-20 token failed."
        }
      ]
    },
    "events": {
      "CctpDepositInitiated(address,uint256,uint256,uint256,uint64,uint32)": {
        "params": {
          "cctpNonce": "CCTP nonce for attestation tracking",
          "depositAmount": "Amount of USDC deposited by user (before fees)",
          "destinationDomain": "CCTP destination domain (Solana = 5)",
          "fee": "CCTP Fast Transfer fee charged",
          "mintedAmount": "Amount of USDC that will be minted on Solana (after fees)",
          "user": "Address of the depositor"
        }
      },
      "DepositFinalized(address,uint256,uint32,bytes32)": {
        "params": {
          "amount": "Amount sent via LayerZero",
          "dstEid": "LayerZero destination endpoint ID",
          "guid": "LayerZero message GUID",
          "user": "Address of the depositor"
        }
      }
    },
    "kind": "dev",
    "methods": {
      "allowInitializePath((uint32,bytes32,uint64))": {
        "details": "This indicates to the endpoint that the OApp has enabled msgs for this particular path to be received.This defaults to assuming if a peer has been set, its initialized. Can be overridden by the OApp if there is other logic to determine this.",
        "params": {
          "origin": "The origin information containing the source endpoint and sender address."
        },
        "returns": {
          "_0": "Whether the path has been initialized."
        }
      },
      "combineOptions(uint32,uint16,bytes)": {
        "details": "If there is an enforced lzReceive option: - {gasLimit: 200k, msg.value: 1 ether} AND a caller supplies a lzReceive option: {gasLimit: 100k, msg.value: 0.5 ether} - The resulting options will be {gasLimit: 300k, msg.value: 1.5 ether} when the message is executed on the remote lzReceive() function.This presence of duplicated options is handled off-chain in the verifier/executor.",
        "params": {
          "_eid": "The endpoint ID.",
          "_extraOptions": "Additional options passed by the caller.",
          "_msgType": "The OAPP message type."
        },
        "returns": {
          "_0": "options The combination of caller specified options AND enforced options."
        }
      },
      "depositViaCCTP(uint256)": {
        "details": "Combines: transferFrom  approve  depositForBurnCalculates actual minted amount after CCTP Fast Transfer fee (1 bps = 0.01%)",
        "params": {
          "_amount": "Amount of USDC to bridge to Solana (before fees)"
        },
        "returns": {
          "_0": "nonce CCTP nonce for tracking the cross-chain message"
        }
      },
      "getPendingDeposit(address)": {
        "params": {
          "_user": "User address to check"
        },
        "returns": {
          "amount": "Pending CCTP deposit amount",
          "nonce": "CCTP nonce of the deposit"
        }
      },
      "isComposeMsgSender((uint32,bytes32,uint64),bytes,address)": {
        "details": "_origin The origin information containing the source endpoint and sender address.  - srcEid: The source chain endpoint ID.  - sender: The sender address on the src chain.  - nonce: The nonce of the message._message The lzReceive payload.Applications can optionally choose to implement separate composeMsg senders that are NOT the bridging layer.The default sender IS the OAppReceiver implementer.",
        "params": {
          "_sender": "The sender address."
        },
        "returns": {
          "_0": "isSender Is a valid sender."
        }
      },
      "lzReceive((uint32,bytes32,uint64),bytes32,bytes,address,bytes)": {
        "details": "Entry point for receiving messages or packets from the endpoint.Entry point for receiving msg/packet from the LayerZero endpoint.",
        "params": {
          "_executor": "The address of the executor for the received message.",
          "_extraData": "Additional arbitrary data provided by the corresponding executor.",
          "_guid": "The unique identifier for the received LayerZero message.",
          "_message": "The payload of the received message.",
          "_origin": "The origin information containing the source endpoint and sender address.  - srcEid: The source chain endpoint ID.  - sender: The sender address on the src chain.  - nonce: The nonce of the message."
        }
      },
      "nextNonce(uint32,bytes32)": {
        "details": "_srcEid The source endpoint ID._sender The sender address.The path nonce starts from 1. If 0 is returned it means that there is NO nonce ordered enforcement.Is required by the off-chain executor to determine the OApp expects msg execution is ordered.This is also enforced by the OApp.By default this is NOT enabled. ie. nextNonce is hardcoded to return 0.",
        "returns": {
          "nonce": "The next nonce."
        }
      },
      "oAppVersion()": {
        "returns": {
          "receiverVersion": "The version of the OAppReceiver.sol implementation.",
          "senderVersion": "The version of the OAppSender.sol implementation."
        }
      },
      "owner()": {
        "details": "Returns the address of the current owner."
      },
      "quoteDeposit(uint32,bytes,bool)": {
        "details": "Quotes based on the user's pending CCTP deposit amount",
        "params": {
          "_dstEid": "LayerZero destination endpoint ID",
          "_options": "LayerZero execution options",
          "_payInLzToken": "Whether to pay fee in LZ token"
        },
        "returns": {
          "fee": "Estimated messaging fee"
        }
      },
      "renounceOwnership()": {
        "details": "Leaves the contract without owner. It will not be possible to call `onlyOwner` functions. Can only be called by the current owner. NOTE: Renouncing ownership will leave the contract without an owner, thereby disabling any functionality that is only available to the owner."
      },
      "requestDeposit(uint32,bytes)": {
        "details": "User signs this transaction AFTER bot has submitted CCTP attestation on Solana.This function uses the amount from the user's CCTP deposit (security: prevents amount mismatch).If user has NO pending CCTP deposit, this function acts as legacy direct deposit (for testing).",
        "params": {
          "_dstEid": "LayerZero destination endpoint ID (Solana = 40168)",
          "_options": "LayerZero execution options (gas, etc.)"
        },
        "returns": {
          "receipt": "LayerZero messaging receipt"
        }
      },
      "setDelegate(address)": {
        "details": "Only the owner/admin of the OApp can call this function.Provides the ability for a delegate to set configs, on behalf of the OApp, directly on the Endpoint contract.",
        "params": {
          "_delegate": "The address of the delegate to be set."
        }
      },
      "setEnforcedOptions((uint32,uint16,bytes)[])": {
        "details": "Sets the enforced options for specific endpoint and message type combinations.Only the owner/admin of the OApp can call this function.Provides a way for the OApp to enforce things like paying for PreCrime, AND/OR minimum dst lzReceive gas amounts etc.These enforced options can vary as the potential options/execution on the remote may differ as per the msgType. eg. Amount of lzReceive() gas necessary to deliver a lzCompose() message adds overhead you dont want to pay if you are only making a standard LayerZero message ie. lzReceive() WITHOUT sendCompose().",
        "params": {
          "_enforcedOptions": "An array of EnforcedOptionParam structures specifying enforced options."
        }
      },
      "setPeer(uint32,bytes32)": {
        "details": "Only the owner/admin of the OApp can call this function.Indicates that the peer is trusted to send LayerZero messages to this OApp.Set this to bytes32(0) to remove the peer address.Peer is a bytes32 to accommodate non-evm chains.",
        "params": {
          "_eid": "The endpoint ID.",
          "_peer": "The address of the peer to be associated with the corresponding endpoint."
        }
      },
      "transferOwnership(address)": {
        "details": "Transfers ownership of the contract to a new account (`newOwner`). Can only be called by the current owner."
      }
    },
    "stateVariables": {
      "FAST_TRANSFER_THRESHOLD": {
        "details": "1000 = Confirmed (~10-30 seconds), 2000 = Finalized (~13-19 minutes)"
      },
      "MIN_FEE": {
        "details": "Base Sepolia Fast Transfer fee: 1 bps (0.01%) = 100_000 in 1/1000 basis pointsFee formula: fee = (amount * MIN_FEE) / MIN_FEE_MULTIPLIER"
      },
      "SOLANA_DOMAIN": {
        "details": "Solana domain: 5"
      },
      "STORE_SOLANA_USDC_ATA": {
        "details": "Base58: MHso38U1uo8br3gSU6bXKC8apXorKzfwPqMVgYaKCmaHex: 0x0532b299adf7feeff0684579095c83982f2998b494fd93a5ae188fbcbfee74a5NO CONVERSION NEEDED! Solana addresses are already 32 bytes. Pass directly to depositForBurn."
      },
      "cctpDeposits": {
        "details": "This is the net amount user will receive on Solana (depositAmount - cctpFee)Security: Ensures user can only send LayerZero message for amount they actually receive"
      },
      "cctpNonces": {
        "details": "Used for bot to correlate CCTP attestation with user"
      },
      "cctpTokenMessenger": {
        "details": "Base Sepolia TokenMessengerV2: 0x8FE6B999Dc680CcFDD5Bf7EB0974218be2542DAAThis is the contract we need to approve USDC for (it calls transferFrom)"
      },
      "usdc": {
        "details": "Base Sepolia USDC: 0x036CbD53842c5426634e7929541eC2318f3dCF7e"
      }
    },
    "version": 1
  },
  "userdoc": {
    "events": {
      "CctpDepositInitiated(address,uint256,uint256,uint256,uint64,uint32)": {
        "notice": "Emitted when user initiates CCTP deposit"
      },
      "DepositFinalized(address,uint256,uint32,bytes32)": {
        "notice": "Emitted when user finalizes deposit by sending LayerZero message"
      }
    },
    "kind": "user",
    "methods": {
      "FAST_TRANSFER_THRESHOLD()": {
        "notice": "Fast Transfer finality threshold for CCTP V2"
      },
      "MIN_FEE()": {
        "notice": "CCTP V2 Fee Calculation Constants"
      },
      "SOLANA_DOMAIN()": {
        "notice": "Solana domain identifier for CCTP V2"
      },
      "STORE_SOLANA_USDC_ATA()": {
        "notice": "Store's USDC ATA on Solana (hex-encoded 32-byte address)"
      },
      "allowInitializePath((uint32,bytes32,uint64))": {
        "notice": "Checks if the path initialization is allowed based on the provided origin."
      },
      "cctpDeposits(address)": {
        "notice": "Track CCTP deposits: user => ACTUAL amount that will be minted on Solana (after fees)"
      },
      "cctpNonces(address)": {
        "notice": "Track CCTP nonces for each user's deposit"
      },
      "cctpTokenMessenger()": {
        "notice": "Circle's CCTP V2 TokenMessenger contract on Base Sepolia"
      },
      "combineOptions(uint32,uint16,bytes)": {
        "notice": "Combines options for a given endpoint and message type."
      },
      "depositViaCCTP(uint256)": {
        "notice": "Complete CCTP deposit flow in one transaction"
      },
      "endpoint()": {
        "notice": "Retrieves the LayerZero endpoint associated with the OApp."
      },
      "getPendingDeposit(address)": {
        "notice": "Get the pending CCTP deposit amount for a user"
      },
      "isComposeMsgSender((uint32,bytes32,uint64),bytes,address)": {
        "notice": "Indicates whether an address is an approved composeMsg sender to the Endpoint."
      },
      "nextNonce(uint32,bytes32)": {
        "notice": "Retrieves the next nonce for a given source endpoint and sender address."
      },
      "oAppVersion()": {
        "notice": "Retrieves the OApp version information."
      },
      "peers(uint32)": {
        "notice": "Retrieves the peer (OApp) associated with a corresponding endpoint."
      },
      "quoteDeposit(uint32,bytes,bool)": {
        "notice": "Quote the LayerZero fee for requestDeposit"
      },
      "requestDeposit(uint32,bytes)": {
        "notice": "Step 2: Send LayerZero message to finalize deposit on Solana"
      },
      "setDelegate(address)": {
        "notice": "Sets the delegate address for the OApp."
      },
      "setPeer(uint32,bytes32)": {
        "notice": "Sets the peer address (OApp instance) for a corresponding endpoint."
      },
      "usdc()": {
        "notice": "USDC token contract on Base Sepolia"
      }
    },
    "version": 1
  },
  "storageLayout": {
    "storage": [
      {
        "astId": 1533,
        "contract": "contracts/MyOApp.sol:MyOApp",
        "label": "_owner",
        "offset": 0,
        "slot": "0",
        "type": "t_address"
      },
      {
        "astId": 785,
        "contract": "contracts/MyOApp.sol:MyOApp",
        "label": "peers",
        "offset": 0,
        "slot": "1",
        "type": "t_mapping(t_uint32,t_bytes32)"
      },
      {
        "astId": 1381,
        "contract": "contracts/MyOApp.sol:MyOApp",
        "label": "enforcedOptions",
        "offset": 0,
        "slot": "2",
        "type": "t_mapping(t_uint32,t_mapping(t_uint16,t_bytes_storage))"
      },
      {
        "astId": 2400,
        "contract": "contracts/MyOApp.sol:MyOApp",
        "label": "data",
        "offset": 0,
        "slot": "3",
        "type": "t_string_storage"
      },
      {
        "astId": 2402,
        "contract": "contracts/MyOApp.sol:MyOApp",
        "label": "counter",
        "offset": 0,
        "slot": "4",
        "type": "t_uint64"
      },
      {
        "astId": 2406,
        "contract": "contracts/MyOApp.sol:MyOApp",
        "label": "balances",
        "offset": 0,
        "slot": "5",
        "type": "t_mapping(t_address,t_uint256)"
      },
      {
        "astId": 2410,
        "contract": "contracts/MyOApp.sol:MyOApp",
        "label": "pendingSender",
        "offset": 0,
        "slot": "6",
        "type": "t_mapping(t_bytes32,t_address)"
      },
      {
        "astId": 2442,
        "contract": "contracts/MyOApp.sol:MyOApp",
        "label": "cctpDeposits",
        "offset": 0,
        "slot": "7",
        "type": "t_mapping(t_address,t_uint256)"
      },
      {
        "astId": 2447,
        "contract": "contracts/MyOApp.sol:MyOApp",
        "label": "cctpNonces",
        "offset": 0,
        "slot": "8",
        "type": "t_mapping(t_address,t_uint64)"
      }
    ],
    "types": {
      "t_address": {
        "encoding": "inplace",
        "label": "address",
        "numberOfBytes": "20"
      },
      "t_bytes32": {
        "encoding": "inplace",
        "label": "bytes32",
        "numberOfBytes": "32"
      },
      "t_bytes_storage": {
        "encoding": "bytes",
        "label": "bytes",
        "numberOfBytes": "32"
      },
      "t_mapping(t_address,t_uint256)": {
        "encoding": "mapping",
        "key": "t_address",
        "label": "mapping(address => uint256)",
        "numberOfBytes": "32",
        "value": "t_uint256"
      },
      "t_mapping(t_address,t_uint64)": {
        "encoding": "mapping",
        "key": "t_address",
        "label": "mapping(address => uint64)",
        "numberOfBytes": "32",
        "value": "t_uint64"
      },
      "t_mapping(t_bytes32,t_address)": {
        "encoding": "mapping",
        "key": "t_bytes32",
        "label": "mapping(bytes32 => address)",
        "numberOfBytes": "32",
        "value": "t_address"
      },
      "t_mapping(t_uint16,t_bytes_storage)": {
        "encoding": "mapping",
        "key": "t_uint16",
        "label": "mapping(uint16 => bytes)",
        "numberOfBytes": "32",
        "value": "t_bytes_storage"
      },
      "t_mapping(t_uint32,t_bytes32)": {
        "encoding": "mapping",
        "key": "t_uint32",
        "label": "mapping(uint32 => bytes32)",
        "numberOfBytes": "32",
        "value": "t_bytes32"
      },
      "t_mapping(t_uint32,t_mapping(t_uint16,t_bytes_storage))": {
        "encoding": "mapping",
        "key": "t_uint32",
        "label": "mapping(uint32 => mapping(uint16 => bytes))",
        "numberOfBytes": "32",
        "value": "t_mapping(t_uint16,t_bytes_storage)"
      },
      "t_string_storage": {
        "encoding": "bytes",
        "label": "string",
        "numberOfBytes": "32"
      },
      "t_uint16": {
        "encoding": "inplace",
        "label": "uint16",
        "numberOfBytes": "2"
      },
      "t_uint256": {
        "encoding": "inplace",
        "label": "uint256",
        "numberOfBytes": "32"
      },
      "t_uint32": {
        "encoding": "inplace",
        "label": "uint32",
        "numberOfBytes": "4"
      },
      "t_uint64": {
        "encoding": "inplace",
        "label": "uint64",
        "numberOfBytes": "8"
      }
    }
  }
}