{
  "address": "0xBfE24FD9121126456D5146E3955d8164cfE895c6",
  "abi": [
    {
      "inputs": [
        {
          "internalType": "address",
          "name": "_endpoint",
          "type": "address"
        },
        {
          "internalType": "address",
          "name": "_delegate",
          "type": "address"
        }
      ],
      "stateMutability": "nonpayable",
      "type": "constructor"
    },
    {
      "inputs": [],
      "name": "InvalidDelegate",
      "type": "error"
    },
    {
      "inputs": [],
      "name": "InvalidEndpointCall",
      "type": "error"
    },
    {
      "inputs": [
        {
          "internalType": "bytes",
          "name": "options",
          "type": "bytes"
        }
      ],
      "name": "InvalidOptions",
      "type": "error"
    },
    {
      "inputs": [],
      "name": "LzTokenUnavailable",
      "type": "error"
    },
    {
      "inputs": [
        {
          "internalType": "uint32",
          "name": "eid",
          "type": "uint32"
        }
      ],
      "name": "NoPeer",
      "type": "error"
    },
    {
      "inputs": [
        {
          "internalType": "uint256",
          "name": "msgValue",
          "type": "uint256"
        }
      ],
      "name": "NotEnoughNative",
      "type": "error"
    },
    {
      "inputs": [
        {
          "internalType": "address",
          "name": "addr",
          "type": "address"
        }
      ],
      "name": "OnlyEndpoint",
      "type": "error"
    },
    {
      "inputs": [
        {
          "internalType": "uint32",
          "name": "eid",
          "type": "uint32"
        },
        {
          "internalType": "bytes32",
          "name": "sender",
          "type": "bytes32"
        }
      ],
      "name": "OnlyPeer",
      "type": "error"
    },
    {
      "inputs": [
        {
          "internalType": "address",
          "name": "owner",
          "type": "address"
        }
      ],
      "name": "OwnableInvalidOwner",
      "type": "error"
    },
    {
      "inputs": [
        {
          "internalType": "address",
          "name": "account",
          "type": "address"
        }
      ],
      "name": "OwnableUnauthorizedAccount",
      "type": "error"
    },
    {
      "inputs": [
        {
          "internalType": "address",
          "name": "token",
          "type": "address"
        }
      ],
      "name": "SafeERC20FailedOperation",
      "type": "error"
    },
    {
      "anonymous": false,
      "inputs": [
        {
          "components": [
            {
              "internalType": "uint32",
              "name": "eid",
              "type": "uint32"
            },
            {
              "internalType": "uint16",
              "name": "msgType",
              "type": "uint16"
            },
            {
              "internalType": "bytes",
              "name": "options",
              "type": "bytes"
            }
          ],
          "indexed": false,
          "internalType": "struct EnforcedOptionParam[]",
          "name": "_enforcedOptions",
          "type": "tuple[]"
        }
      ],
      "name": "EnforcedOptionSet",
      "type": "event"
    },
    {
      "anonymous": false,
      "inputs": [
        {
          "indexed": true,
          "internalType": "address",
          "name": "previousOwner",
          "type": "address"
        },
        {
          "indexed": true,
          "internalType": "address",
          "name": "newOwner",
          "type": "address"
        }
      ],
      "name": "OwnershipTransferred",
      "type": "event"
    },
    {
      "anonymous": false,
      "inputs": [
        {
          "indexed": false,
          "internalType": "uint32",
          "name": "eid",
          "type": "uint32"
        },
        {
          "indexed": false,
          "internalType": "bytes32",
          "name": "peer",
          "type": "bytes32"
        }
      ],
      "name": "PeerSet",
      "type": "event"
    },
    {
      "inputs": [
        {
          "components": [
            {
              "internalType": "uint32",
              "name": "srcEid",
              "type": "uint32"
            },
            {
              "internalType": "bytes32",
              "name": "sender",
              "type": "bytes32"
            },
            {
              "internalType": "uint64",
              "name": "nonce",
              "type": "uint64"
            }
          ],
          "internalType": "struct Origin",
          "name": "origin",
          "type": "tuple"
        }
      ],
      "name": "allowInitializePath",
      "outputs": [
        {
          "internalType": "bool",
          "name": "",
          "type": "bool"
        }
      ],
      "stateMutability": "view",
      "type": "function"
    },
    {
      "inputs": [
        {
          "internalType": "address",
          "name": "",
          "type": "address"
        }
      ],
      "name": "balances",
      "outputs": [
        {
          "internalType": "uint256",
          "name": "",
          "type": "uint256"
        }
      ],
      "stateMutability": "view",
      "type": "function"
    },
    {
      "inputs": [
        {
          "internalType": "uint32",
          "name": "_eid",
          "type": "uint32"
        },
        {
          "internalType": "uint16",
          "name": "_msgType",
          "type": "uint16"
        },
        {
          "internalType": "bytes",
          "name": "_extraOptions",
          "type": "bytes"
        }
      ],
      "name": "combineOptions",
      "outputs": [
        {
          "internalType": "bytes",
          "name": "",
          "type": "bytes"
        }
      ],
      "stateMutability": "view",
      "type": "function"
    },
    {
      "inputs": [],
      "name": "counter",
      "outputs": [
        {
          "internalType": "uint64",
          "name": "",
          "type": "uint64"
        }
      ],
      "stateMutability": "view",
      "type": "function"
    },
    {
      "inputs": [],
      "name": "data",
      "outputs": [
        {
          "internalType": "string",
          "name": "",
          "type": "string"
        }
      ],
      "stateMutability": "view",
      "type": "function"
    },
    {
      "inputs": [],
      "name": "endpoint",
      "outputs": [
        {
          "internalType": "contract ILayerZeroEndpointV2",
          "name": "",
          "type": "address"
        }
      ],
      "stateMutability": "view",
      "type": "function"
    },
    {
      "inputs": [
        {
          "internalType": "uint32",
          "name": "eid",
          "type": "uint32"
        },
        {
          "internalType": "uint16",
          "name": "msgType",
          "type": "uint16"
        }
      ],
      "name": "enforcedOptions",
      "outputs": [
        {
          "internalType": "bytes",
          "name": "enforcedOption",
          "type": "bytes"
        }
      ],
      "stateMutability": "view",
      "type": "function"
    },
    {
      "inputs": [
        {
          "components": [
            {
              "internalType": "uint32",
              "name": "srcEid",
              "type": "uint32"
            },
            {
              "internalType": "bytes32",
              "name": "sender",
              "type": "bytes32"
            },
            {
              "internalType": "uint64",
              "name": "nonce",
              "type": "uint64"
            }
          ],
          "internalType": "struct Origin",
          "name": "",
          "type": "tuple"
        },
        {
          "internalType": "bytes",
          "name": "",
          "type": "bytes"
        },
        {
          "internalType": "address",
          "name": "_sender",
          "type": "address"
        }
      ],
      "name": "isComposeMsgSender",
      "outputs": [
        {
          "internalType": "bool",
          "name": "",
          "type": "bool"
        }
      ],
      "stateMutability": "view",
      "type": "function"
    },
    {
      "inputs": [
        {
          "internalType": "address",
          "name": "",
          "type": "address"
        },
        {
          "internalType": "address",
          "name": "",
          "type": "address"
        },
        {
          "internalType": "bytes32",
          "name": "guid",
          "type": "bytes32"
        },
        {
          "internalType": "uint16",
          "name": "",
          "type": "uint16"
        },
        {
          "internalType": "bytes",
          "name": "payload",
          "type": "bytes"
        },
        {
          "internalType": "bytes",
          "name": "",
          "type": "bytes"
        }
      ],
      "name": "lzCompose",
      "outputs": [],
      "stateMutability": "payable",
      "type": "function"
    },
    {
      "inputs": [
        {
          "components": [
            {
              "internalType": "uint32",
              "name": "srcEid",
              "type": "uint32"
            },
            {
              "internalType": "bytes32",
              "name": "sender",
              "type": "bytes32"
            },
            {
              "internalType": "uint64",
              "name": "nonce",
              "type": "uint64"
            }
          ],
          "internalType": "struct Origin",
          "name": "_origin",
          "type": "tuple"
        },
        {
          "internalType": "bytes32",
          "name": "_guid",
          "type": "bytes32"
        },
        {
          "internalType": "bytes",
          "name": "_message",
          "type": "bytes"
        },
        {
          "internalType": "address",
          "name": "_executor",
          "type": "address"
        },
        {
          "internalType": "bytes",
          "name": "_extraData",
          "type": "bytes"
        }
      ],
      "name": "lzReceive",
      "outputs": [],
      "stateMutability": "payable",
      "type": "function"
    },
    {
      "inputs": [
        {
          "internalType": "uint32",
          "name": "",
          "type": "uint32"
        },
        {
          "internalType": "bytes32",
          "name": "",
          "type": "bytes32"
        }
      ],
      "name": "nextNonce",
      "outputs": [
        {
          "internalType": "uint64",
          "name": "nonce",
          "type": "uint64"
        }
      ],
      "stateMutability": "view",
      "type": "function"
    },
    {
      "inputs": [],
      "name": "oAppVersion",
      "outputs": [
        {
          "internalType": "uint64",
          "name": "senderVersion",
          "type": "uint64"
        },
        {
          "internalType": "uint64",
          "name": "receiverVersion",
          "type": "uint64"
        }
      ],
      "stateMutability": "pure",
      "type": "function"
    },
    {
      "inputs": [],
      "name": "owner",
      "outputs": [
        {
          "internalType": "address",
          "name": "",
          "type": "address"
        }
      ],
      "stateMutability": "view",
      "type": "function"
    },
    {
      "inputs": [
        {
          "internalType": "uint32",
          "name": "eid",
          "type": "uint32"
        }
      ],
      "name": "peers",
      "outputs": [
        {
          "internalType": "bytes32",
          "name": "peer",
          "type": "bytes32"
        }
      ],
      "stateMutability": "view",
      "type": "function"
    },
    {
      "inputs": [
        {
          "internalType": "bytes32",
          "name": "",
          "type": "bytes32"
        }
      ],
      "name": "pendingSender",
      "outputs": [
        {
          "internalType": "address",
          "name": "",
          "type": "address"
        }
      ],
      "stateMutability": "view",
      "type": "function"
    },
    {
      "inputs": [
        {
          "internalType": "uint32",
          "name": "_dstEid",
          "type": "uint32"
        },
        {
          "internalType": "uint64",
          "name": "_amountBaseUnits",
          "type": "uint64"
        },
        {
          "internalType": "bytes",
          "name": "_options",
          "type": "bytes"
        },
        {
          "internalType": "bool",
          "name": "_payInLzToken",
          "type": "bool"
        }
      ],
      "name": "quoteDeposit",
      "outputs": [
        {
          "components": [
            {
              "internalType": "uint256",
              "name": "nativeFee",
              "type": "uint256"
            },
            {
              "internalType": "uint256",
              "name": "lzTokenFee",
              "type": "uint256"
            }
          ],
          "internalType": "struct MessagingFee",
          "name": "fee",
          "type": "tuple"
        }
      ],
      "stateMutability": "view",
      "type": "function"
    },
    {
      "inputs": [
        {
          "internalType": "uint32",
          "name": "_dstEid",
          "type": "uint32"
        },
        {
          "internalType": "uint64",
          "name": "_by",
          "type": "uint64"
        },
        {
          "internalType": "bytes",
          "name": "_options",
          "type": "bytes"
        },
        {
          "internalType": "bool",
          "name": "_payInLzToken",
          "type": "bool"
        }
      ],
      "name": "quoteIncrement",
      "outputs": [
        {
          "components": [
            {
              "internalType": "uint256",
              "name": "nativeFee",
              "type": "uint256"
            },
            {
              "internalType": "uint256",
              "name": "lzTokenFee",
              "type": "uint256"
            }
          ],
          "internalType": "struct MessagingFee",
          "name": "fee",
          "type": "tuple"
        }
      ],
      "stateMutability": "view",
      "type": "function"
    },
    {
      "inputs": [],
      "name": "renounceOwnership",
      "outputs": [],
      "stateMutability": "nonpayable",
      "type": "function"
    },
    {
      "inputs": [
        {
          "internalType": "uint32",
          "name": "_dstEid",
          "type": "uint32"
        },
        {
          "internalType": "uint64",
          "name": "_amountBaseUnits",
          "type": "uint64"
        },
        {
          "internalType": "bytes",
          "name": "_options",
          "type": "bytes"
        }
      ],
      "name": "requestDeposit",
      "outputs": [
        {
          "components": [
            {
              "internalType": "bytes32",
              "name": "guid",
              "type": "bytes32"
            },
            {
              "internalType": "uint64",
              "name": "nonce",
              "type": "uint64"
            },
            {
              "components": [
                {
                  "internalType": "uint256",
                  "name": "nativeFee",
                  "type": "uint256"
                },
                {
                  "internalType": "uint256",
                  "name": "lzTokenFee",
                  "type": "uint256"
                }
              ],
              "internalType": "struct MessagingFee",
              "name": "fee",
              "type": "tuple"
            }
          ],
          "internalType": "struct MessagingReceipt",
          "name": "receipt",
          "type": "tuple"
        }
      ],
      "stateMutability": "payable",
      "type": "function"
    },
    {
      "inputs": [
        {
          "internalType": "uint32",
          "name": "_dstEid",
          "type": "uint32"
        },
        {
          "internalType": "uint64",
          "name": "_by",
          "type": "uint64"
        },
        {
          "internalType": "bytes",
          "name": "_options",
          "type": "bytes"
        }
      ],
      "name": "requestIncrement",
      "outputs": [
        {
          "components": [
            {
              "internalType": "bytes32",
              "name": "guid",
              "type": "bytes32"
            },
            {
              "internalType": "uint64",
              "name": "nonce",
              "type": "uint64"
            },
            {
              "components": [
                {
                  "internalType": "uint256",
                  "name": "nativeFee",
                  "type": "uint256"
                },
                {
                  "internalType": "uint256",
                  "name": "lzTokenFee",
                  "type": "uint256"
                }
              ],
              "internalType": "struct MessagingFee",
              "name": "fee",
              "type": "tuple"
            }
          ],
          "internalType": "struct MessagingReceipt",
          "name": "receipt",
          "type": "tuple"
        }
      ],
      "stateMutability": "payable",
      "type": "function"
    },
    {
      "inputs": [
        {
          "internalType": "address",
          "name": "_delegate",
          "type": "address"
        }
      ],
      "name": "setDelegate",
      "outputs": [],
      "stateMutability": "nonpayable",
      "type": "function"
    },
    {
      "inputs": [
        {
          "components": [
            {
              "internalType": "uint32",
              "name": "eid",
              "type": "uint32"
            },
            {
              "internalType": "uint16",
              "name": "msgType",
              "type": "uint16"
            },
            {
              "internalType": "bytes",
              "name": "options",
              "type": "bytes"
            }
          ],
          "internalType": "struct EnforcedOptionParam[]",
          "name": "_enforcedOptions",
          "type": "tuple[]"
        }
      ],
      "name": "setEnforcedOptions",
      "outputs": [],
      "stateMutability": "nonpayable",
      "type": "function"
    },
    {
      "inputs": [
        {
          "internalType": "uint32",
          "name": "_eid",
          "type": "uint32"
        },
        {
          "internalType": "bytes32",
          "name": "_peer",
          "type": "bytes32"
        }
      ],
      "name": "setPeer",
      "outputs": [],
      "stateMutability": "nonpayable",
      "type": "function"
    },
    {
      "inputs": [
        {
          "internalType": "address",
          "name": "newOwner",
          "type": "address"
        }
      ],
      "name": "transferOwnership",
      "outputs": [],
      "stateMutability": "nonpayable",
      "type": "function"
    }
  ],
  "transactionHash": "0x96d73d61853d603c73acb19d009abdd0962a3b9348fc8a68ab41ca1c0b3d4335",
  "args": [
    "0x6EDCE65403992e310A62460808c4b910D972f10f",
    "0x79B7931d9bb01e58beAE970e1dd74146317aa667"
  ],
  "numDeployments": 2,
  "solcInputHash": "6bec752b375565657e3b5f5ea302c1a0",
  "bytecode": "0x60e0604052601560a09081527f4e6f7468696e67207265636569766564207965742e000000000000000000000060c0526003906200003e908262000241565b503480156200004c57600080fd5b50604051620023b6380380620023b68339810160408190526200006f916200032a565b81818181806001600160a01b038116620000a357604051631e4fbdf760e01b81526000600482015260240160405180910390fd5b620000ae816200014a565b506001600160a01b038083166080528116620000dd57604051632d618d8160e21b815260040160405180910390fd5b60805160405163ca5eb5e160e01b81526001600160a01b0383811660048301529091169063ca5eb5e190602401600060405180830381600087803b1580156200012557600080fd5b505af11580156200013a573d6000803e3d6000fd5b5050505050505050505062000362565b600080546001600160a01b038381166001600160a01b0319831681178455604051919092169283917f8be0079c531659141344cd1fd0a4f28419497f9722a3daafe3b4186f6b6457e09190a35050565b634e487b7160e01b600052604160045260246000fd5b600181811c90821680620001c557607f821691505b602082108103620001e657634e487b7160e01b600052602260045260246000fd5b50919050565b601f8211156200023c576000816000526020600020601f850160051c81016020861015620002175750805b601f850160051c820191505b81811015620002385782815560010162000223565b5050505b505050565b81516001600160401b038111156200025d576200025d6200019a565b62000275816200026e8454620001b0565b84620001ec565b602080601f831160018114620002ad5760008415620002945750858301515b600019600386901b1c1916600185901b17855562000238565b600085815260208120601f198616915b82811015620002de57888601518255948401946001909101908401620002bd565b5085821015620002fd5787850151600019600388901b60f8161c191681555b5050505050600190811b01905550565b80516001600160a01b03811681146200032557600080fd5b919050565b600080604083850312156200033e57600080fd5b62000349836200030d565b915062000359602084016200030d565b90509250929050565b608051612007620003af60003960008181610246015281816104c8015281816107dd01528181610bfe01528181610d8e01528181610fc0015281816111f501526112ac01526120076000f3fe60806040526004361061014b5760003560e01c80637a992680116100b6578063b98bd0701161006f578063b98bd070146103f9578063bb0b6a5314610419578063bc70b35414610446578063ca5eb5e114610466578063f2fde38b14610486578063ff7bd03d146104a657600080fd5b80637a9926801461032b5780637d25a05e1461035857806382413eac146103785780638da5cb5b146103a857806391d20fa1146103c6578063a231d2e7146103d957600080fd5b80635e280f11116101085780635e280f111461023457806361bc221a146102805780636503fbc6146102b8578063659759dc146102ee578063715018a61461030157806373d4a13a1461031657600080fd5b806313137d651461015057806317442b701461016557806326c4f29d1461018c57806327e235e3146101ac5780633400288b146101e75780635535d46114610207575b600080fd5b61016361015e366004611456565b6104c6565b005b34801561017157600080fd5b50604080516001815260026020820152015b60405180910390f35b61019f61019a366004611523565b610586565b6040516101839190611585565b3480156101b857600080fd5b506101d96101c73660046115c7565b60056020526000908152604090205481565b604051908152602001610183565b3480156101f357600080fd5b506101636102023660046115eb565b6105d9565b34801561021357600080fd5b50610227610222366004611627565b6105ef565b60405161018391906116aa565b34801561024057600080fd5b506102687f000000000000000000000000000000000000000000000000000000000000000081565b6040516001600160a01b039091168152602001610183565b34801561028c57600080fd5b506004546102a0906001600160401b031681565b6040516001600160401b039091168152602001610183565b3480156102c457600080fd5b506102686102d33660046116bd565b6006602052600090815260409020546001600160a01b031681565b61019f6102fc366004611523565b610694565b34801561030d57600080fd5b50610163610728565b34801561032257600080fd5b5061022761073c565b34801561033757600080fd5b5061034b6103463660046116d6565b610749565b6040516101839190611755565b34801561036457600080fd5b506102a06103733660046115eb565b6107b4565b34801561038457600080fd5b5061039861039336600461176c565b6107bd565b6040519015158152602001610183565b3480156103b457600080fd5b506000546001600160a01b0316610268565b6101636103d43660046117d2565b6107d2565b3480156103e557600080fd5b5061034b6103f43660046116d6565b6109e5565b34801561040557600080fd5b50610163610414366004611880565b610a15565b34801561042557600080fd5b506101d96104343660046118f4565b60016020526000908152604090205481565b34801561045257600080fd5b5061022761046136600461190f565b610a2f565b34801561047257600080fd5b506101636104813660046115c7565b610bd7565b34801561049257600080fd5b506101636104a13660046115c7565b610c5d565b3480156104b257600080fd5b506103986104c136600461193c565b610c9b565b7f00000000000000000000000000000000000000000000000000000000000000006001600160a01b03163314610516576040516391ac5e4f60e01b81523360048201526024015b60405180910390fd5b602087018035906105309061052b908a6118f4565b610cd1565b1461056e5761054260208801886118f4565b60405163309afaf360e21b815263ffffffff90911660048201526020880135602482015260440161050d565b61057d87878787878787610d0d565b50505050505050565b61058e61139a565b600061059985610d24565b905060006105aa8760018787610a2f565b90506105ce8783836040518060400160405280348152602001600081525033610d5b565b979650505050505050565b6105e1610e5b565b6105eb8282610e88565b5050565b60026020908152600092835260408084209091529082529020805461061390611958565b80601f016020809104026020016040519081016040528092919081815260200182805461063f90611958565b801561068c5780601f106106615761010080835404028352916020019161068c565b820191906000526020600020905b81548152906001019060200180831161066f57829003601f168201915b505050505081565b61069c61139a565b60006106a785610edd565b336040516020016106b992919061198c565b604051602081830303815290604052905060006106d98760018787610a2f565b90506106fd8783836040518060400160405280348152602001600081525033610d5b565b8051600090815260066020526040902080546001600160a01b03191633179055979650505050505050565b610730610e5b565b61073a6000610f5a565b565b6003805461061390611958565b6040805180820190915260008082526020820152600061076886610edd565b3360405160200161077a92919061198c565b6040516020818303038152906040529050600061079a8860018888610a2f565b90506107a888838387610faa565b98975050505050505050565b60005b92915050565b6001600160a01b03811630145b949350505050565b336001600160a01b037f0000000000000000000000000000000000000000000000000000000000000000161461084a5760405162461bcd60e51b815260206004820152601760248201527f4c5a3a2063616c6c6572206e6f7420656e64706f696e74000000000000000000604482015260640161050d565b600060098414801561087c57506002858560008161086a5761086a6119c3565b9050013560f81c60f81b60f81c60ff16145b156108f85760005b60088110156108d6576108988160086119ef565b6001600160401b031686866108ae846001611a06565b8181106108bd576108bd6119c3565b919091013560f81c90911b929092179150600101610884565b506004805467ffffffffffffffff19166001600160401b03831617905561096a565b600884900361096a5760005b600881101561094c576109188160086119ef565b6001600160401b0316868683818110610933576109336119c3565b919091013560f81c90911b929092179150600101610904565b506004805467ffffffffffffffff19166001600160401b0383161790555b6000878152600660205260409020546001600160a01b031680156109d957600088815260066020908152604080832080546001600160a01b03191690556001600160a01b03841683526005909152812080546001600160401b03851692906109d3908490611a06565b90915550505b50505050505050505050565b60408051808201909152600080825260208201526000610a0486610d24565b9050600061079a8860018888610a2f565b610a1d610e5b565b6105eb610a2a8284611a87565b61108b565b63ffffffff8416600090815260026020908152604080832061ffff87168452909152812080546060929190610a6390611958565b80601f0160208091040260200160405190810160405280929190818152602001828054610a8f90611958565b8015610adc5780601f10610ab157610100808354040283529160200191610adc565b820191906000526020600020905b815481529060010190602001808311610abf57829003601f168201915b505050505090508051600003610b2c5783838080601f0160208091040260200160405190810160405280939291908181526020018383808284376000920191909152509294506107ca9350505050565b6000839003610b3c5790506107ca565b60028310610bba57610b8384848080601f01602080910402602001604051908101604052809392919081815260200183838082843760009201919091525061119d92505050565b80610b918460028188611bac565b604051602001610ba393929190611bd6565b6040516020818303038152906040529150506107ca565b8383604051639a6d49cd60e01b815260040161050d929190611bfe565b610bdf610e5b565b60405163ca5eb5e160e01b81526001600160a01b0382811660048301527f0000000000000000000000000000000000000000000000000000000000000000169063ca5eb5e190602401600060405180830381600087803b158015610c4257600080fd5b505af1158015610c56573d6000803e3d6000fd5b5050505050565b610c65610e5b565b6001600160a01b038116610c8f57604051631e4fbdf760e01b81526000600482015260240161050d565b610c9881610f5a565b50565b6000602082018035906001908390610cb390866118f4565b63ffffffff1681526020810191909152604001600020541492915050565b63ffffffff8116600090815260016020526040812054806107b75760405163f6ff4fb760e01b815263ffffffff8416600482015260240161050d565b6003610d1a858783611c7e565b5050505050505050565b60408051600160f81b602082015260c09290921b6001600160c01b0319166021830152805160098184030181526029909201905290565b610d6361139a565b6000610d7284600001516111c9565b602085015190915015610d8c57610d8c84602001516111f1565b7f00000000000000000000000000000000000000000000000000000000000000006001600160a01b0316632637a450826040518060a001604052808b63ffffffff168152602001610ddc8c610cd1565b81526020018a815260200189815260200160008960200151111515815250866040518463ffffffff1660e01b8152600401610e18929190611d3d565b60806040518083038185885af1158015610e36573d6000803e3d6000fd5b50505050506040513d601f19601f820116820180604052508101906105ce9190611e04565b6000546001600160a01b0316331461073a5760405163118cdaa760e01b815233600482015260240161050d565b63ffffffff8216600081815260016020908152604091829020849055815192835282018390527f238399d427b947898edb290f5ff0f9109849b1c3ba196a42e35f00c50a54b98b910160405180910390a15050565b6040805160088082528183019092526060916020820181803683370190505090508160005b6008811015610f53578160ff1660f81b838281518110610f2457610f246119c3565b60200101906001600160f81b031916908160001a90535060089190911c66ffffffffffffff1690600101610f02565b5050919050565b600080546001600160a01b038381166001600160a01b0319831681178455604051919092169283917f8be0079c531659141344cd1fd0a4f28419497f9722a3daafe3b4186f6b6457e09190a35050565b60408051808201909152600080825260208201527f00000000000000000000000000000000000000000000000000000000000000006001600160a01b031663ddc28c586040518060a001604052808863ffffffff16815260200161100d89610cd1565b8152602001878152602001868152602001851515815250306040518363ffffffff1660e01b8152600401611042929190611d3d565b6040805180830381865afa15801561105e573d6000803e3d6000fd5b505050506040513d601f19601f820116820180604052508101906110829190611e4e565b95945050505050565b60005b8151811015611162576110bd8282815181106110ac576110ac6119c3565b60200260200101516040015161119d565b8181815181106110cf576110cf6119c3565b602002602001015160400151600260008484815181106110f1576110f16119c3565b60200260200101516000015163ffffffff1663ffffffff168152602001908152602001600020600084848151811061112b5761112b6119c3565b60200260200101516020015161ffff1661ffff16815260200190815260200160002090816111599190611e6a565b5060010161108e565b507fbe4864a8e820971c0247f5992e2da559595f7bf076a21cb5928d443d2a13b674816040516111929190611f29565b60405180910390a150565b600281015161ffff81166003146105eb5781604051639a6d49cd60e01b815260040161050d91906116aa565b60008134146111ed576040516304fb820960e51b815234600482015260240161050d565b5090565b60007f00000000000000000000000000000000000000000000000000000000000000006001600160a01b031663e4fe1d946040518163ffffffff1660e01b8152600401602060405180830381865afa158015611251573d6000803e3d6000fd5b505050506040513d601f19601f820116820180604052508101906112759190611fb4565b90506001600160a01b03811661129e576040516329b99a9560e11b815260040160405180910390fd5b6040805133602482018190527f00000000000000000000000000000000000000000000000000000000000000006001600160a01b03818116604485015260648085018890528551808603909101815260849094019094526020830180516001600160e01b03166323b872dd60e01b1790526105eb938516928690611323908590611329565b50505050565b600080602060008451602086016000885af18061134c576040513d6000823e3d81fd5b50506000513d91508115611364578060011415611371565b6001600160a01b0384163b155b1561132357604051635274afe760e01b81526001600160a01b038516600482015260240161050d565b60405180606001604052806000801916815260200160006001600160401b031681526020016113dc604051806040016040528060008152602001600081525090565b905290565b6000606082840312156113f357600080fd5b50919050565b60008083601f84011261140b57600080fd5b5081356001600160401b0381111561142257600080fd5b60208301915083602082850101111561143a57600080fd5b9250929050565b6001600160a01b0381168114610c9857600080fd5b600080600080600080600060e0888a03121561147157600080fd5b61147b89896113e1565b96506060880135955060808801356001600160401b038082111561149e57600080fd5b6114aa8b838c016113f9565b909750955060a08a013591506114bf82611441565b90935060c089013590808211156114d557600080fd5b506114e28a828b016113f9565b989b979a50959850939692959293505050565b803563ffffffff8116811461150957600080fd5b919050565b6001600160401b0381168114610c9857600080fd5b6000806000806060858703121561153957600080fd5b611542856114f5565b935060208501356115528161150e565b925060408501356001600160401b0381111561156d57600080fd5b611579878288016113f9565b95989497509550505050565b6000608082019050825182526001600160401b03602084015116602083015260408301516115c0604084018280518252602090810151910152565b5092915050565b6000602082840312156115d957600080fd5b81356115e481611441565b9392505050565b600080604083850312156115fe57600080fd5b611607836114f5565b946020939093013593505050565b803561ffff8116811461150957600080fd5b6000806040838503121561163a57600080fd5b611643836114f5565b915061165160208401611615565b90509250929050565b60005b8381101561167557818101518382015260200161165d565b50506000910152565b6000815180845261169681602086016020860161165a565b601f01601f19169290920160200192915050565b6020815260006115e4602083018461167e565b6000602082840312156116cf57600080fd5b5035919050565b6000806000806000608086880312156116ee57600080fd5b6116f7866114f5565b945060208601356117078161150e565b935060408601356001600160401b0381111561172257600080fd5b61172e888289016113f9565b9094509250506060860135801515811461174757600080fd5b809150509295509295909350565b8151815260208083015190820152604081016107b7565b60008060008060a0858703121561178257600080fd5b61178c86866113e1565b935060608501356001600160401b038111156117a757600080fd5b6117b3878288016113f9565b90945092505060808501356117c781611441565b939692955090935050565b60008060008060008060008060c0898b0312156117ee57600080fd5b88356117f981611441565b9750602089013561180981611441565b96506040890135955061181e60608a01611615565b945060808901356001600160401b038082111561183a57600080fd5b6118468c838d016113f9565b909650945060a08b013591508082111561185f57600080fd5b5061186c8b828c016113f9565b999c989b5096995094979396929594505050565b6000806020838503121561189357600080fd5b82356001600160401b03808211156118aa57600080fd5b818501915085601f8301126118be57600080fd5b8135818111156118cd57600080fd5b8660208260051b85010111156118e257600080fd5b60209290920196919550909350505050565b60006020828403121561190657600080fd5b6115e4826114f5565b6000806000806060858703121561192557600080fd5b61192e856114f5565b935061155260208601611615565b60006060828403121561194e57600080fd5b6115e483836113e1565b600181811c9082168061196c57607f821691505b6020821081036113f357634e487b7160e01b600052602260045260246000fd5b6000835161199e81846020880161165a565b60609390931b6bffffffffffffffffffffffff19169190920190815260140192915050565b634e487b7160e01b600052603260045260246000fd5b634e487b7160e01b600052601160045260246000fd5b80820281158282048414176107b7576107b76119d9565b808201808211156107b7576107b76119d9565b634e487b7160e01b600052604160045260246000fd5b604051606081016001600160401b0381118282101715611a5157611a51611a19565b60405290565b604051601f8201601f191681016001600160401b0381118282101715611a7f57611a7f611a19565b604052919050565b60006001600160401b0380841115611aa157611aa1611a19565b8360051b6020611ab2818301611a57565b868152918501918181019036841115611aca57600080fd5b865b84811015611ba057803586811115611ae45760008081fd5b88016060368290031215611af85760008081fd5b611b00611a2f565b611b09826114f5565b8152611b16868301611615565b8682015260408083013589811115611b2e5760008081fd5b9290920191601f3681850112611b445760008081fd5b83358a811115611b5657611b56611a19565b611b67818301601f19168a01611a57565b91508082523689828701011115611b7e5760008081fd5b808986018a840137600090820189015290820152845250918301918301611acc565b50979650505050505050565b60008085851115611bbc57600080fd5b83861115611bc957600080fd5b5050820193919092039150565b60008451611be881846020890161165a565b8201838582376000930192835250909392505050565b60208152816020820152818360408301376000818301604090810191909152601f909201601f19160101919050565b601f821115611c79576000816000526020600020601f850160051c81016020861015611c565750805b601f850160051c820191505b81811015611c7557828155600101611c62565b5050505b505050565b6001600160401b03831115611c9557611c95611a19565b611ca983611ca38354611958565b83611c2d565b6000601f841160018114611cdd5760008515611cc55750838201355b600019600387901b1c1916600186901b178355610c56565b600083815260209020601f19861690835b82811015611d0e5786850135825560209485019460019092019101611cee565b5086821015611d2b5760001960f88860031b161c19848701351681555b505060018560011b0183555050505050565b6040815263ffffffff8351166040820152602083015160608201526000604084015160a06080840152611d7360e084018261167e565b90506060850151603f198483030160a0850152611d90828261167e565b60809690960151151560c08501525050506001600160a01b039190911660209091015290565b600060408284031215611dc857600080fd5b604051604081018181106001600160401b0382111715611dea57611dea611a19565b604052825181526020928301519281019290925250919050565b600060808284031215611e1657600080fd5b611e1e611a2f565b825181526020830151611e308161150e565b6020820152611e428460408501611db6565b60408201529392505050565b600060408284031215611e6057600080fd5b6115e48383611db6565b81516001600160401b03811115611e8357611e83611a19565b611e9781611e918454611958565b84611c2d565b602080601f831160018114611ecc5760008415611eb45750858301515b600019600386901b1c1916600185901b178555611c75565b600085815260208120601f198616915b82811015611efb57888601518255948401946001909101908401611edc565b5085821015611f195787850151600019600388901b60f8161c191681555b5050505050600190811b01905550565b600060208083018184528085518083526040925060408601915060408160051b87010184880160005b83811015611fa657888303603f190185528151805163ffffffff1684528781015161ffff16888501528601516060878501819052611f928186018361167e565b968901969450505090860190600101611f52565b509098975050505050505050565b600060208284031215611fc657600080fd5b81516115e48161144156fea2646970667358221220416dcbc6c5d735e166e8e33c244ada19030cb91549fa325189b916987f248c3164736f6c63430008160033",
  "devdoc": {
    "errors": {
      "OwnableInvalidOwner(address)": [
        {
          "details": "The owner is not a valid owner account. (eg. `address(0)`)"
        }
      ],
      "OwnableUnauthorizedAccount(address)": [
        {
          "details": "The caller account is not authorized to perform an operation."
        }
      ],
      "SafeERC20FailedOperation(address)": [
        {
          "details": "An operation with an ERC-20 token failed."
        }
      ]
    },
    "kind": "dev",
    "methods": {
      "allowInitializePath((uint32,bytes32,uint64))": {
        "details": "This indicates to the endpoint that the OApp has enabled msgs for this particular path to be received.This defaults to assuming if a peer has been set, its initialized. Can be overridden by the OApp if there is other logic to determine this.",
        "params": {
          "origin": "The origin information containing the source endpoint and sender address."
        },
        "returns": {
          "_0": "Whether the path has been initialized."
        }
      },
      "combineOptions(uint32,uint16,bytes)": {
        "details": "If there is an enforced lzReceive option: - {gasLimit: 200k, msg.value: 1 ether} AND a caller supplies a lzReceive option: {gasLimit: 100k, msg.value: 0.5 ether} - The resulting options will be {gasLimit: 300k, msg.value: 1.5 ether} when the message is executed on the remote lzReceive() function.This presence of duplicated options is handled off-chain in the verifier/executor.",
        "params": {
          "_eid": "The endpoint ID.",
          "_extraOptions": "Additional options passed by the caller.",
          "_msgType": "The OAPP message type."
        },
        "returns": {
          "_0": "options The combination of caller specified options AND enforced options."
        }
      },
      "isComposeMsgSender((uint32,bytes32,uint64),bytes,address)": {
        "details": "_origin The origin information containing the source endpoint and sender address.  - srcEid: The source chain endpoint ID.  - sender: The sender address on the src chain.  - nonce: The nonce of the message._message The lzReceive payload.Applications can optionally choose to implement separate composeMsg senders that are NOT the bridging layer.The default sender IS the OAppReceiver implementer.",
        "params": {
          "_sender": "The sender address."
        },
        "returns": {
          "_0": "isSender Is a valid sender."
        }
      },
      "lzReceive((uint32,bytes32,uint64),bytes32,bytes,address,bytes)": {
        "details": "Entry point for receiving messages or packets from the endpoint.Entry point for receiving msg/packet from the LayerZero endpoint.",
        "params": {
          "_executor": "The address of the executor for the received message.",
          "_extraData": "Additional arbitrary data provided by the corresponding executor.",
          "_guid": "The unique identifier for the received LayerZero message.",
          "_message": "The payload of the received message.",
          "_origin": "The origin information containing the source endpoint and sender address.  - srcEid: The source chain endpoint ID.  - sender: The sender address on the src chain.  - nonce: The nonce of the message."
        }
      },
      "nextNonce(uint32,bytes32)": {
        "details": "_srcEid The source endpoint ID._sender The sender address.The path nonce starts from 1. If 0 is returned it means that there is NO nonce ordered enforcement.Is required by the off-chain executor to determine the OApp expects msg execution is ordered.This is also enforced by the OApp.By default this is NOT enabled. ie. nextNonce is hardcoded to return 0.",
        "returns": {
          "nonce": "The next nonce."
        }
      },
      "oAppVersion()": {
        "returns": {
          "receiverVersion": "The version of the OAppReceiver.sol implementation.",
          "senderVersion": "The version of the OAppSender.sol implementation."
        }
      },
      "owner()": {
        "details": "Returns the address of the current owner."
      },
      "renounceOwnership()": {
        "details": "Leaves the contract without owner. It will not be possible to call `onlyOwner` functions. Can only be called by the current owner. NOTE: Renouncing ownership will leave the contract without an owner, thereby disabling any functionality that is only available to the owner."
      },
      "setDelegate(address)": {
        "details": "Only the owner/admin of the OApp can call this function.Provides the ability for a delegate to set configs, on behalf of the OApp, directly on the Endpoint contract.",
        "params": {
          "_delegate": "The address of the delegate to be set."
        }
      },
      "setEnforcedOptions((uint32,uint16,bytes)[])": {
        "details": "Sets the enforced options for specific endpoint and message type combinations.Only the owner/admin of the OApp can call this function.Provides a way for the OApp to enforce things like paying for PreCrime, AND/OR minimum dst lzReceive gas amounts etc.These enforced options can vary as the potential options/execution on the remote may differ as per the msgType. eg. Amount of lzReceive() gas necessary to deliver a lzCompose() message adds overhead you dont want to pay if you are only making a standard LayerZero message ie. lzReceive() WITHOUT sendCompose().",
        "params": {
          "_enforcedOptions": "An array of EnforcedOptionParam structures specifying enforced options."
        }
      },
      "setPeer(uint32,bytes32)": {
        "details": "Only the owner/admin of the OApp can call this function.Indicates that the peer is trusted to send LayerZero messages to this OApp.Set this to bytes32(0) to remove the peer address.Peer is a bytes32 to accommodate non-evm chains.",
        "params": {
          "_eid": "The endpoint ID.",
          "_peer": "The address of the peer to be associated with the corresponding endpoint."
        }
      },
      "transferOwnership(address)": {
        "details": "Transfers ownership of the contract to a new account (`newOwner`). Can only be called by the current owner."
      }
    },
    "version": 1
  },
  "userdoc": {
    "kind": "user",
    "methods": {
      "allowInitializePath((uint32,bytes32,uint64))": {
        "notice": "Checks if the path initialization is allowed based on the provided origin."
      },
      "combineOptions(uint32,uint16,bytes)": {
        "notice": "Combines options for a given endpoint and message type."
      },
      "endpoint()": {
        "notice": "Retrieves the LayerZero endpoint associated with the OApp."
      },
      "isComposeMsgSender((uint32,bytes32,uint64),bytes,address)": {
        "notice": "Indicates whether an address is an approved composeMsg sender to the Endpoint."
      },
      "nextNonce(uint32,bytes32)": {
        "notice": "Retrieves the next nonce for a given source endpoint and sender address."
      },
      "oAppVersion()": {
        "notice": "Retrieves the OApp version information."
      },
      "peers(uint32)": {
        "notice": "Retrieves the peer (OApp) associated with a corresponding endpoint."
      },
      "setDelegate(address)": {
        "notice": "Sets the delegate address for the OApp."
      },
      "setPeer(uint32,bytes32)": {
        "notice": "Sets the peer address (OApp instance) for a corresponding endpoint."
      }
    },
    "version": 1
  },
  "storageLayout": {
    "storage": [
      {
        "astId": 1533,
        "contract": "contracts/MyOApp.sol:MyOApp",
        "label": "_owner",
        "offset": 0,
        "slot": "0",
        "type": "t_address"
      },
      {
        "astId": 785,
        "contract": "contracts/MyOApp.sol:MyOApp",
        "label": "peers",
        "offset": 0,
        "slot": "1",
        "type": "t_mapping(t_uint32,t_bytes32)"
      },
      {
        "astId": 1381,
        "contract": "contracts/MyOApp.sol:MyOApp",
        "label": "enforcedOptions",
        "offset": 0,
        "slot": "2",
        "type": "t_mapping(t_uint32,t_mapping(t_uint16,t_bytes_storage))"
      },
      {
        "astId": 2370,
        "contract": "contracts/MyOApp.sol:MyOApp",
        "label": "data",
        "offset": 0,
        "slot": "3",
        "type": "t_string_storage"
      },
      {
        "astId": 2372,
        "contract": "contracts/MyOApp.sol:MyOApp",
        "label": "counter",
        "offset": 0,
        "slot": "4",
        "type": "t_uint64"
      },
      {
        "astId": 2376,
        "contract": "contracts/MyOApp.sol:MyOApp",
        "label": "balances",
        "offset": 0,
        "slot": "5",
        "type": "t_mapping(t_address,t_uint256)"
      },
      {
        "astId": 2380,
        "contract": "contracts/MyOApp.sol:MyOApp",
        "label": "pendingSender",
        "offset": 0,
        "slot": "6",
        "type": "t_mapping(t_bytes32,t_address)"
      }
    ],
    "types": {
      "t_address": {
        "encoding": "inplace",
        "label": "address",
        "numberOfBytes": "20"
      },
      "t_bytes32": {
        "encoding": "inplace",
        "label": "bytes32",
        "numberOfBytes": "32"
      },
      "t_bytes_storage": {
        "encoding": "bytes",
        "label": "bytes",
        "numberOfBytes": "32"
      },
      "t_mapping(t_address,t_uint256)": {
        "encoding": "mapping",
        "key": "t_address",
        "label": "mapping(address => uint256)",
        "numberOfBytes": "32",
        "value": "t_uint256"
      },
      "t_mapping(t_bytes32,t_address)": {
        "encoding": "mapping",
        "key": "t_bytes32",
        "label": "mapping(bytes32 => address)",
        "numberOfBytes": "32",
        "value": "t_address"
      },
      "t_mapping(t_uint16,t_bytes_storage)": {
        "encoding": "mapping",
        "key": "t_uint16",
        "label": "mapping(uint16 => bytes)",
        "numberOfBytes": "32",
        "value": "t_bytes_storage"
      },
      "t_mapping(t_uint32,t_bytes32)": {
        "encoding": "mapping",
        "key": "t_uint32",
        "label": "mapping(uint32 => bytes32)",
        "numberOfBytes": "32",
        "value": "t_bytes32"
      },
      "t_mapping(t_uint32,t_mapping(t_uint16,t_bytes_storage))": {
        "encoding": "mapping",
        "key": "t_uint32",
        "label": "mapping(uint32 => mapping(uint16 => bytes))",
        "numberOfBytes": "32",
        "value": "t_mapping(t_uint16,t_bytes_storage)"
      },
      "t_string_storage": {
        "encoding": "bytes",
        "label": "string",
        "numberOfBytes": "32"
      },
      "t_uint16": {
        "encoding": "inplace",
        "label": "uint16",
        "numberOfBytes": "2"
      },
      "t_uint256": {
        "encoding": "inplace",
        "label": "uint256",
        "numberOfBytes": "32"
      },
      "t_uint32": {
        "encoding": "inplace",
        "label": "uint32",
        "numberOfBytes": "4"
      },
      "t_uint64": {
        "encoding": "inplace",
        "label": "uint64",
        "numberOfBytes": "8"
      }
    }
  }
}